{
	"contracts/Presale.sol": {
		"PresaleComplete": {
			"abi": [
				{
					"inputs": [
						{
							"internalType": "address",
							"name": "_token",
							"type": "address"
						},
						{
							"internalType": "uint256",
							"name": "_price_num",
							"type": "uint256"
						},
						{
							"internalType": "uint256",
							"name": "_price_denom",
							"type": "uint256"
						},
						{
							"internalType": "uint256",
							"name": "_startSaleDate",
							"type": "uint256"
						},
						{
							"internalType": "uint256",
							"name": "_endSaleDate",
							"type": "uint256"
						}
					],
					"stateMutability": "nonpayable",
					"type": "constructor"
				},
				{
					"inputs": [
						{
							"internalType": "uint256",
							"name": "buyTokenAmount",
							"type": "uint256"
						}
					],
					"name": "buyToken",
					"outputs": [],
					"stateMutability": "payable",
					"type": "function"
				},
				{
					"inputs": [],
					"name": "endSaleDate",
					"outputs": [
						{
							"internalType": "uint256",
							"name": "",
							"type": "uint256"
						}
					],
					"stateMutability": "view",
					"type": "function"
				},
				{
					"inputs": [],
					"name": "getTokenBalance",
					"outputs": [
						{
							"internalType": "uint256",
							"name": "",
							"type": "uint256"
						}
					],
					"stateMutability": "view",
					"type": "function"
				},
				{
					"inputs": [],
					"name": "getTokenPrice",
					"outputs": [
						{
							"internalType": "uint256",
							"name": "",
							"type": "uint256"
						}
					],
					"stateMutability": "view",
					"type": "function"
				},
				{
					"inputs": [],
					"name": "getTokenSold",
					"outputs": [
						{
							"internalType": "uint256",
							"name": "",
							"type": "uint256"
						}
					],
					"stateMutability": "view",
					"type": "function"
				},
				{
					"inputs": [],
					"name": "owner",
					"outputs": [
						{
							"internalType": "address",
							"name": "",
							"type": "address"
						}
					],
					"stateMutability": "view",
					"type": "function"
				},
				{
					"inputs": [],
					"name": "price_denom",
					"outputs": [
						{
							"internalType": "uint256",
							"name": "",
							"type": "uint256"
						}
					],
					"stateMutability": "view",
					"type": "function"
				},
				{
					"inputs": [],
					"name": "price_num",
					"outputs": [
						{
							"internalType": "uint256",
							"name": "",
							"type": "uint256"
						}
					],
					"stateMutability": "view",
					"type": "function"
				},
				{
					"inputs": [
						{
							"internalType": "address",
							"name": "_newOwner",
							"type": "address"
						}
					],
					"name": "setOwner",
					"outputs": [],
					"stateMutability": "nonpayable",
					"type": "function"
				},
				{
					"inputs": [
						{
							"internalType": "uint256",
							"name": "_price_num",
							"type": "uint256"
						},
						{
							"internalType": "uint256",
							"name": "_price_denom",
							"type": "uint256"
						}
					],
					"name": "setPrice",
					"outputs": [],
					"stateMutability": "nonpayable",
					"type": "function"
				},
				{
					"inputs": [
						{
							"internalType": "uint256",
							"name": "_startSaleDate",
							"type": "uint256"
						},
						{
							"internalType": "uint256",
							"name": "_endSaleDate",
							"type": "uint256"
						}
					],
					"name": "setSaleDate",
					"outputs": [],
					"stateMutability": "nonpayable",
					"type": "function"
				},
				{
					"inputs": [
						{
							"internalType": "address",
							"name": "_token",
							"type": "address"
						}
					],
					"name": "setToken",
					"outputs": [],
					"stateMutability": "nonpayable",
					"type": "function"
				},
				{
					"inputs": [],
					"name": "startSaleDate",
					"outputs": [
						{
							"internalType": "uint256",
							"name": "",
							"type": "uint256"
						}
					],
					"stateMutability": "view",
					"type": "function"
				},
				{
					"inputs": [],
					"name": "token",
					"outputs": [
						{
							"internalType": "contract IERC20",
							"name": "",
							"type": "address"
						}
					],
					"stateMutability": "view",
					"type": "function"
				},
				{
					"inputs": [],
					"name": "tokenBalance",
					"outputs": [
						{
							"internalType": "uint256",
							"name": "",
							"type": "uint256"
						}
					],
					"stateMutability": "view",
					"type": "function"
				},
				{
					"inputs": [],
					"name": "tokensSold",
					"outputs": [
						{
							"internalType": "uint256",
							"name": "",
							"type": "uint256"
						}
					],
					"stateMutability": "view",
					"type": "function"
				},
				{
					"inputs": [
						{
							"internalType": "address",
							"name": "to",
							"type": "address"
						},
						{
							"internalType": "uint256",
							"name": "amount",
							"type": "uint256"
						}
					],
					"name": "withdrawEth",
					"outputs": [],
					"stateMutability": "nonpayable",
					"type": "function"
				},
				{
					"inputs": [
						{
							"internalType": "contract IERC20",
							"name": "_token",
							"type": "address"
						},
						{
							"internalType": "address",
							"name": "to",
							"type": "address"
						},
						{
							"internalType": "uint256",
							"name": "amount",
							"type": "uint256"
						}
					],
					"name": "withdrawToken",
					"outputs": [],
					"stateMutability": "nonpayable",
					"type": "function"
				}
			],
			"devdoc": {
				"kind": "dev",
				"methods": {},
				"version": 1
			},
			"evm": {
				"assembly": "    /* \"contracts/Presale.sol\":2874:5829  contract PresaleComplete {... */\n  mstore(0x40, 0x80)\n    /* \"contracts/Presale.sol\":3159:3466  constructor (address _token, uint256 _price_num, uint256 _price_denom, uint256 _startSaleDate, uint256 _endSaleDate ) {... */\n  callvalue\n  dup1\n  iszero\n  tag_1\n  jumpi\n  0x00\n  dup1\n  revert\ntag_1:\n  pop\n  mload(0x40)\n  sub(codesize, bytecodeSize)\n  dup1\n  bytecodeSize\n  dup4\n  codecopy\n  dup2\n  dup2\n  add\n  0x40\n  mstore\n  dup2\n  add\n  swap1\n  tag_2\n  swap2\n  swap1\n  tag_3\n  jump\t// in\ntag_2:\n    /* \"contracts/Presale.sol\":3303:3309  _token */\n  dup5\n    /* \"contracts/Presale.sol\":3288:3293  token */\n  0x00\n  dup1\n    /* \"contracts/Presale.sol\":3288:3310  token = IERC20(_token) */\n  0x0100\n  exp\n  dup2\n  sload\n  dup2\n  0xffffffffffffffffffffffffffffffffffffffff\n  mul\n  not\n  and\n  swap1\n  dup4\n  0xffffffffffffffffffffffffffffffffffffffff\n  and\n  mul\n  or\n  swap1\n  sstore\n  pop\n    /* \"contracts/Presale.sol\":3333:3343  _price_num */\n  dup4\n    /* \"contracts/Presale.sol\":3321:3330  price_num */\n  0x01\n    /* \"contracts/Presale.sol\":3321:3343  price_num = _price_num */\n  dup2\n  swap1\n  sstore\n  pop\n    /* \"contracts/Presale.sol\":3368:3380  _price_denom */\n  dup3\n    /* \"contracts/Presale.sol\":3354:3365  price_denom */\n  0x02\n    /* \"contracts/Presale.sol\":3354:3380  price_denom = _price_denom */\n  dup2\n  swap1\n  sstore\n  pop\n    /* \"contracts/Presale.sol\":3407:3421  _startSaleDate */\n  dup2\n    /* \"contracts/Presale.sol\":3391:3404  startSaleDate */\n  0x04\n    /* \"contracts/Presale.sol\":3391:3421  startSaleDate = _startSaleDate */\n  dup2\n  swap1\n  sstore\n  pop\n    /* \"contracts/Presale.sol\":3446:3458  _endSaleDate */\n  dup1\n    /* \"contracts/Presale.sol\":3432:3443  endSaleDate */\n  0x05\n    /* \"contracts/Presale.sol\":3432:3458  endSaleDate = _endSaleDate */\n  dup2\n  swap1\n  sstore\n  pop\n    /* \"contracts/Presale.sol\":3159:3466  constructor (address _token, uint256 _price_num, uint256 _price_denom, uint256 _startSaleDate, uint256 _endSaleDate ) {... */\n  pop\n  pop\n  pop\n  pop\n  pop\n    /* \"contracts/Presale.sol\":2874:5829  contract PresaleComplete {... */\n  jump(tag_6)\n    /* \"#utility.yul\":88:205   */\ntag_8:\n    /* \"#utility.yul\":197:198   */\n  0x00\n    /* \"#utility.yul\":194:195   */\n  dup1\n    /* \"#utility.yul\":187:199   */\n  revert\n    /* \"#utility.yul\":334:460   */\ntag_10:\n    /* \"#utility.yul\":371:378   */\n  0x00\n    /* \"#utility.yul\":411:453   */\n  0xffffffffffffffffffffffffffffffffffffffff\n    /* \"#utility.yul\":404:409   */\n  dup3\n    /* \"#utility.yul\":400:454   */\n  and\n    /* \"#utility.yul\":389:454   */\n  swap1\n  pop\n    /* \"#utility.yul\":334:460   */\n  swap2\n  swap1\n  pop\n  jump\t// out\n    /* \"#utility.yul\":466:562   */\ntag_11:\n    /* \"#utility.yul\":503:510   */\n  0x00\n    /* \"#utility.yul\":532:556   */\n  tag_23\n    /* \"#utility.yul\":550:555   */\n  dup3\n    /* \"#utility.yul\":532:556   */\n  tag_10\n  jump\t// in\ntag_23:\n    /* \"#utility.yul\":521:556   */\n  swap1\n  pop\n    /* \"#utility.yul\":466:562   */\n  swap2\n  swap1\n  pop\n  jump\t// out\n    /* \"#utility.yul\":568:690   */\ntag_12:\n    /* \"#utility.yul\":641:665   */\n  tag_25\n    /* \"#utility.yul\":659:664   */\n  dup2\n    /* \"#utility.yul\":641:665   */\n  tag_11\n  jump\t// in\ntag_25:\n    /* \"#utility.yul\":634:639   */\n  dup2\n    /* \"#utility.yul\":631:666   */\n  eq\n    /* \"#utility.yul\":621:684   */\n  tag_26\n  jumpi\n    /* \"#utility.yul\":680:681   */\n  0x00\n    /* \"#utility.yul\":677:678   */\n  dup1\n    /* \"#utility.yul\":670:682   */\n  revert\n    /* \"#utility.yul\":621:684   */\ntag_26:\n    /* \"#utility.yul\":568:690   */\n  pop\n  jump\t// out\n    /* \"#utility.yul\":696:839   */\ntag_13:\n    /* \"#utility.yul\":753:758   */\n  0x00\n    /* \"#utility.yul\":784:790   */\n  dup2\n    /* \"#utility.yul\":778:791   */\n  mload\n    /* \"#utility.yul\":769:791   */\n  swap1\n  pop\n    /* \"#utility.yul\":800:833   */\n  tag_28\n    /* \"#utility.yul\":827:832   */\n  dup2\n    /* \"#utility.yul\":800:833   */\n  tag_12\n  jump\t// in\ntag_28:\n    /* \"#utility.yul\":696:839   */\n  swap3\n  swap2\n  pop\n  pop\n  jump\t// out\n    /* \"#utility.yul\":845:922   */\ntag_14:\n    /* \"#utility.yul\":882:889   */\n  0x00\n    /* \"#utility.yul\":911:916   */\n  dup2\n    /* \"#utility.yul\":900:916   */\n  swap1\n  pop\n    /* \"#utility.yul\":845:922   */\n  swap2\n  swap1\n  pop\n  jump\t// out\n    /* \"#utility.yul\":928:1050   */\ntag_15:\n    /* \"#utility.yul\":1001:1025   */\n  tag_31\n    /* \"#utility.yul\":1019:1024   */\n  dup2\n    /* \"#utility.yul\":1001:1025   */\n  tag_14\n  jump\t// in\ntag_31:\n    /* \"#utility.yul\":994:999   */\n  dup2\n    /* \"#utility.yul\":991:1026   */\n  eq\n    /* \"#utility.yul\":981:1044   */\n  tag_32\n  jumpi\n    /* \"#utility.yul\":1040:1041   */\n  0x00\n    /* \"#utility.yul\":1037:1038   */\n  dup1\n    /* \"#utility.yul\":1030:1042   */\n  revert\n    /* \"#utility.yul\":981:1044   */\ntag_32:\n    /* \"#utility.yul\":928:1050   */\n  pop\n  jump\t// out\n    /* \"#utility.yul\":1056:1199   */\ntag_16:\n    /* \"#utility.yul\":1113:1118   */\n  0x00\n    /* \"#utility.yul\":1144:1150   */\n  dup2\n    /* \"#utility.yul\":1138:1151   */\n  mload\n    /* \"#utility.yul\":1129:1151   */\n  swap1\n  pop\n    /* \"#utility.yul\":1160:1193   */\n  tag_34\n    /* \"#utility.yul\":1187:1192   */\n  dup2\n    /* \"#utility.yul\":1160:1193   */\n  tag_15\n  jump\t// in\ntag_34:\n    /* \"#utility.yul\":1056:1199   */\n  swap3\n  swap2\n  pop\n  pop\n  jump\t// out\n    /* \"#utility.yul\":1205:2182   */\ntag_3:\n    /* \"#utility.yul\":1311:1317   */\n  0x00\n    /* \"#utility.yul\":1319:1325   */\n  dup1\n    /* \"#utility.yul\":1327:1333   */\n  0x00\n    /* \"#utility.yul\":1335:1341   */\n  dup1\n    /* \"#utility.yul\":1343:1349   */\n  0x00\n    /* \"#utility.yul\":1392:1395   */\n  0xa0\n    /* \"#utility.yul\":1380:1389   */\n  dup7\n    /* \"#utility.yul\":1371:1378   */\n  dup9\n    /* \"#utility.yul\":1367:1390   */\n  sub\n    /* \"#utility.yul\":1363:1396   */\n  slt\n    /* \"#utility.yul\":1360:1480   */\n  iszero\n  tag_36\n  jumpi\n    /* \"#utility.yul\":1399:1478   */\n  tag_37\n  tag_8\n  jump\t// in\ntag_37:\n    /* \"#utility.yul\":1360:1480   */\ntag_36:\n    /* \"#utility.yul\":1519:1520   */\n  0x00\n    /* \"#utility.yul\":1544:1608   */\n  tag_38\n    /* \"#utility.yul\":1600:1607   */\n  dup9\n    /* \"#utility.yul\":1591:1597   */\n  dup3\n    /* \"#utility.yul\":1580:1589   */\n  dup10\n    /* \"#utility.yul\":1576:1598   */\n  add\n    /* \"#utility.yul\":1544:1608   */\n  tag_13\n  jump\t// in\ntag_38:\n    /* \"#utility.yul\":1534:1608   */\n  swap6\n  pop\n    /* \"#utility.yul\":1490:1618   */\n  pop\n    /* \"#utility.yul\":1657:1659   */\n  0x20\n    /* \"#utility.yul\":1683:1747   */\n  tag_39\n    /* \"#utility.yul\":1739:1746   */\n  dup9\n    /* \"#utility.yul\":1730:1736   */\n  dup3\n    /* \"#utility.yul\":1719:1728   */\n  dup10\n    /* \"#utility.yul\":1715:1737   */\n  add\n    /* \"#utility.yul\":1683:1747   */\n  tag_16\n  jump\t// in\ntag_39:\n    /* \"#utility.yul\":1673:1747   */\n  swap5\n  pop\n    /* \"#utility.yul\":1628:1757   */\n  pop\n    /* \"#utility.yul\":1796:1798   */\n  0x40\n    /* \"#utility.yul\":1822:1886   */\n  tag_40\n    /* \"#utility.yul\":1878:1885   */\n  dup9\n    /* \"#utility.yul\":1869:1875   */\n  dup3\n    /* \"#utility.yul\":1858:1867   */\n  dup10\n    /* \"#utility.yul\":1854:1876   */\n  add\n    /* \"#utility.yul\":1822:1886   */\n  tag_16\n  jump\t// in\ntag_40:\n    /* \"#utility.yul\":1812:1886   */\n  swap4\n  pop\n    /* \"#utility.yul\":1767:1896   */\n  pop\n    /* \"#utility.yul\":1935:1937   */\n  0x60\n    /* \"#utility.yul\":1961:2025   */\n  tag_41\n    /* \"#utility.yul\":2017:2024   */\n  dup9\n    /* \"#utility.yul\":2008:2014   */\n  dup3\n    /* \"#utility.yul\":1997:2006   */\n  dup10\n    /* \"#utility.yul\":1993:2015   */\n  add\n    /* \"#utility.yul\":1961:2025   */\n  tag_16\n  jump\t// in\ntag_41:\n    /* \"#utility.yul\":1951:2025   */\n  swap3\n  pop\n    /* \"#utility.yul\":1906:2035   */\n  pop\n    /* \"#utility.yul\":2074:2077   */\n  0x80\n    /* \"#utility.yul\":2101:2165   */\n  tag_42\n    /* \"#utility.yul\":2157:2164   */\n  dup9\n    /* \"#utility.yul\":2148:2154   */\n  dup3\n    /* \"#utility.yul\":2137:2146   */\n  dup10\n    /* \"#utility.yul\":2133:2155   */\n  add\n    /* \"#utility.yul\":2101:2165   */\n  tag_16\n  jump\t// in\ntag_42:\n    /* \"#utility.yul\":2091:2165   */\n  swap2\n  pop\n    /* \"#utility.yul\":2045:2175   */\n  pop\n    /* \"#utility.yul\":1205:2182   */\n  swap3\n  swap6\n  pop\n  swap3\n  swap6\n  swap1\n  swap4\n  pop\n  jump\t// out\n    /* \"contracts/Presale.sol\":2874:5829  contract PresaleComplete {... */\ntag_6:\n  dataSize(sub_0)\n  dup1\n  dataOffset(sub_0)\n  0x00\n  codecopy\n  0x00\n  return\nstop\n\nsub_0: assembly {\n        /* \"contracts/Presale.sol\":2874:5829  contract PresaleComplete {... */\n      mstore(0x40, 0x80)\n      jumpi(tag_1, lt(calldatasize, 0x04))\n      shr(0xe0, calldataload(0x00))\n      dup1\n      0x846bd39a\n      gt\n      tag_20\n      jumpi\n      dup1\n      0xbcf387cd\n      gt\n      tag_21\n      jumpi\n      dup1\n      0xbcf387cd\n      eq\n      tag_15\n      jumpi\n      dup1\n      0xd7d88043\n      eq\n      tag_16\n      jumpi\n      dup1\n      0xde74aee6\n      eq\n      tag_17\n      jumpi\n      dup1\n      0xf7d97577\n      eq\n      tag_18\n      jumpi\n      dup1\n      0xfc0c546a\n      eq\n      tag_19\n      jumpi\n      jump(tag_1)\n    tag_21:\n      dup1\n      0x846bd39a\n      eq\n      tag_11\n      jumpi\n      dup1\n      0x8da5cb5b\n      eq\n      tag_12\n      jumpi\n      dup1\n      0x94d77363\n      eq\n      tag_13\n      jumpi\n      dup1\n      0x9e1a4d19\n      eq\n      tag_14\n      jumpi\n      jump(tag_1)\n    tag_20:\n      dup1\n      0x2d296bf1\n      gt\n      tag_22\n      jumpi\n      dup1\n      0x2d296bf1\n      eq\n      tag_6\n      jumpi\n      dup1\n      0x4b94f50e\n      eq\n      tag_7\n      jumpi\n      dup1\n      0x518ab2a8\n      eq\n      tag_8\n      jumpi\n      dup1\n      0x6469fa4e\n      eq\n      tag_9\n      jumpi\n      dup1\n      0x82b2e257\n      eq\n      tag_10\n      jumpi\n      jump(tag_1)\n    tag_22:\n      dup1\n      0x01e33667\n      eq\n      tag_2\n      jumpi\n      dup1\n      0x13af4035\n      eq\n      tag_3\n      jumpi\n      dup1\n      0x144fa6d7\n      eq\n      tag_4\n      jumpi\n      dup1\n      0x1b9a91a4\n      eq\n      tag_5\n      jumpi\n    tag_1:\n      0x00\n      dup1\n      revert\n        /* \"contracts/Presale.sol\":5528:5825  function withdrawToken ( IERC20 _token, address to, uint256 amount ) external {... */\n    tag_2:\n      callvalue\n      dup1\n      iszero\n      tag_23\n      jumpi\n      0x00\n      dup1\n      revert\n    tag_23:\n      pop\n      tag_24\n      0x04\n      dup1\n      calldatasize\n      sub\n      dup2\n      add\n      swap1\n      tag_25\n      swap2\n      swap1\n      tag_26\n      jump\t// in\n    tag_25:\n      tag_27\n      jump\t// in\n    tag_24:\n      stop\n        /* \"contracts/Presale.sol\":5102:5240  function setOwner( address _newOwner ) external  {... */\n    tag_3:\n      callvalue\n      dup1\n      iszero\n      tag_28\n      jumpi\n      0x00\n      dup1\n      revert\n    tag_28:\n      pop\n      tag_29\n      0x04\n      dup1\n      calldatasize\n      sub\n      dup2\n      add\n      swap1\n      tag_30\n      swap2\n      swap1\n      tag_31\n      jump\t// in\n    tag_30:\n      tag_32\n      jump\t// in\n    tag_29:\n      stop\n        /* \"contracts/Presale.sol\":4955:5094  function setToken( address _token ) external {... */\n    tag_4:\n      callvalue\n      dup1\n      iszero\n      tag_33\n      jumpi\n      0x00\n      dup1\n      revert\n    tag_33:\n      pop\n      tag_34\n      0x04\n      dup1\n      calldatasize\n      sub\n      dup2\n      add\n      swap1\n      tag_35\n      swap2\n      swap1\n      tag_31\n      jump\t// in\n    tag_35:\n      tag_36\n      jump\t// in\n    tag_34:\n      stop\n        /* \"contracts/Presale.sol\":5248:5520  function withdrawEth( address to, uint256 amount) external {... */\n    tag_5:\n      callvalue\n      dup1\n      iszero\n      tag_37\n      jumpi\n      0x00\n      dup1\n      revert\n    tag_37:\n      pop\n      tag_38\n      0x04\n      dup1\n      calldatasize\n      sub\n      dup2\n      add\n      swap1\n      tag_39\n      swap2\n      swap1\n      tag_40\n      jump\t// in\n    tag_39:\n      tag_41\n      jump\t// in\n    tag_38:\n      stop\n        /* \"contracts/Presale.sol\":3476:4065  function buyToken(uint256 buyTokenAmount) external payable {... */\n    tag_6:\n      tag_42\n      0x04\n      dup1\n      calldatasize\n      sub\n      dup2\n      add\n      swap1\n      tag_43\n      swap2\n      swap1\n      tag_44\n      jump\t// in\n    tag_43:\n      tag_45\n      jump\t// in\n    tag_42:\n      stop\n        /* \"contracts/Presale.sol\":4577:4722  function getTokenPrice() external view returns (uint256) {... */\n    tag_7:\n      callvalue\n      dup1\n      iszero\n      tag_46\n      jumpi\n      0x00\n      dup1\n      revert\n    tag_46:\n      pop\n      tag_47\n      tag_48\n      jump\t// in\n    tag_47:\n      mload(0x40)\n      tag_49\n      swap2\n      swap1\n      tag_50\n      jump\t// in\n    tag_49:\n      mload(0x40)\n      dup1\n      swap2\n      sub\n      swap1\n      return\n        /* \"contracts/Presale.sol\":3091:3116  uint256 public tokensSold */\n    tag_8:\n      callvalue\n      dup1\n      iszero\n      tag_51\n      jumpi\n      0x00\n      dup1\n      revert\n    tag_51:\n      pop\n      tag_52\n      tag_53\n      jump\t// in\n    tag_52:\n      mload(0x40)\n      tag_54\n      swap2\n      swap1\n      tag_50\n      jump\t// in\n    tag_54:\n      mload(0x40)\n      dup1\n      swap2\n      sub\n      swap1\n      return\n        /* \"contracts/Presale.sol\":2932:2956  uint256 public price_num */\n    tag_9:\n      callvalue\n      dup1\n      iszero\n      tag_55\n      jumpi\n      0x00\n      dup1\n      revert\n    tag_55:\n      pop\n      tag_56\n      tag_57\n      jump\t// in\n    tag_56:\n      mload(0x40)\n      tag_58\n      swap2\n      swap1\n      tag_50\n      jump\t// in\n    tag_58:\n      mload(0x40)\n      dup1\n      swap2\n      sub\n      swap1\n      return\n        /* \"contracts/Presale.sol\":4195:4291  function getTokenBalance() external view returns(uint256) {... */\n    tag_10:\n      callvalue\n      dup1\n      iszero\n      tag_59\n      jumpi\n      0x00\n      dup1\n      revert\n    tag_59:\n      pop\n      tag_60\n      tag_61\n      jump\t// in\n    tag_60:\n      mload(0x40)\n      tag_62\n      swap2\n      swap1\n      tag_50\n      jump\t// in\n    tag_62:\n      mload(0x40)\n      dup1\n      swap2\n      sub\n      swap1\n      return\n        /* \"contracts/Presale.sol\":4730:4947  function setSaleDate( uint256 _startSaleDate, uint256 _endSaleDate ) external {... */\n    tag_11:\n      callvalue\n      dup1\n      iszero\n      tag_63\n      jumpi\n      0x00\n      dup1\n      revert\n    tag_63:\n      pop\n      tag_64\n      0x04\n      dup1\n      calldatasize\n      sub\n      dup2\n      add\n      swap1\n      tag_65\n      swap2\n      swap1\n      tag_66\n      jump\t// in\n    tag_65:\n      tag_67\n      jump\t// in\n    tag_64:\n      stop\n        /* \"contracts/Presale.sol\":2996:3016  address public owner */\n    tag_12:\n      callvalue\n      dup1\n      iszero\n      tag_68\n      jumpi\n      0x00\n      dup1\n      revert\n    tag_68:\n      pop\n      tag_69\n      tag_70\n      jump\t// in\n    tag_69:\n      mload(0x40)\n      tag_71\n      swap2\n      swap1\n      tag_72\n      jump\t// in\n    tag_71:\n      mload(0x40)\n      dup1\n      swap2\n      sub\n      swap1\n      return\n        /* \"contracts/Presale.sol\":4073:4166  function getTokenSold() external view returns( uint256 ) {... */\n    tag_13:\n      callvalue\n      dup1\n      iszero\n      tag_73\n      jumpi\n      0x00\n      dup1\n      revert\n    tag_73:\n      pop\n      tag_74\n      tag_75\n      jump\t// in\n    tag_74:\n      mload(0x40)\n      tag_76\n      swap2\n      swap1\n      tag_50\n      jump\t// in\n    tag_76:\n      mload(0x40)\n      dup1\n      swap2\n      sub\n      swap1\n      return\n        /* \"contracts/Presale.sol\":3123:3150  uint256 public tokenBalance */\n    tag_14:\n      callvalue\n      dup1\n      iszero\n      tag_77\n      jumpi\n      0x00\n      dup1\n      revert\n    tag_77:\n      pop\n      tag_78\n      tag_79\n      jump\t// in\n    tag_78:\n      mload(0x40)\n      tag_80\n      swap2\n      swap1\n      tag_50\n      jump\t// in\n    tag_80:\n      mload(0x40)\n      dup1\n      swap2\n      sub\n      swap1\n      return\n        /* \"contracts/Presale.sol\":3023:3051  uint256 public startSaleDate */\n    tag_15:\n      callvalue\n      dup1\n      iszero\n      tag_81\n      jumpi\n      0x00\n      dup1\n      revert\n    tag_81:\n      pop\n      tag_82\n      tag_83\n      jump\t// in\n    tag_82:\n      mload(0x40)\n      tag_84\n      swap2\n      swap1\n      tag_50\n      jump\t// in\n    tag_84:\n      mload(0x40)\n      dup1\n      swap2\n      sub\n      swap1\n      return\n        /* \"contracts/Presale.sol\":3058:3084  uint256 public endSaleDate */\n    tag_16:\n      callvalue\n      dup1\n      iszero\n      tag_85\n      jumpi\n      0x00\n      dup1\n      revert\n    tag_85:\n      pop\n      tag_86\n      tag_87\n      jump\t// in\n    tag_86:\n      mload(0x40)\n      tag_88\n      swap2\n      swap1\n      tag_50\n      jump\t// in\n    tag_88:\n      mload(0x40)\n      dup1\n      swap2\n      sub\n      swap1\n      return\n        /* \"contracts/Presale.sol\":2963:2989  uint256 public price_denom */\n    tag_17:\n      callvalue\n      dup1\n      iszero\n      tag_89\n      jumpi\n      0x00\n      dup1\n      revert\n    tag_89:\n      pop\n      tag_90\n      tag_91\n      jump\t// in\n    tag_90:\n      mload(0x40)\n      tag_92\n      swap2\n      swap1\n      tag_50\n      jump\t// in\n    tag_92:\n      mload(0x40)\n      dup1\n      swap2\n      sub\n      swap1\n      return\n        /* \"contracts/Presale.sol\":4347:4549  function setPrice( uint256 _price_num, uint256 _price_denom ) external {... */\n    tag_18:\n      callvalue\n      dup1\n      iszero\n      tag_93\n      jumpi\n      0x00\n      dup1\n      revert\n    tag_93:\n      pop\n      tag_94\n      0x04\n      dup1\n      calldatasize\n      sub\n      dup2\n      add\n      swap1\n      tag_95\n      swap2\n      swap1\n      tag_66\n      jump\t// in\n    tag_95:\n      tag_96\n      jump\t// in\n    tag_94:\n      stop\n        /* \"contracts/Presale.sol\":2906:2925  IERC20 public token */\n    tag_19:\n      callvalue\n      dup1\n      iszero\n      tag_97\n      jumpi\n      0x00\n      dup1\n      revert\n    tag_97:\n      pop\n      tag_98\n      tag_99\n      jump\t// in\n    tag_98:\n      mload(0x40)\n      tag_100\n      swap2\n      swap1\n      tag_101\n      jump\t// in\n    tag_100:\n      mload(0x40)\n      dup1\n      swap2\n      sub\n      swap1\n      return\n        /* \"contracts/Presale.sol\":5528:5825  function withdrawToken ( IERC20 _token, address to, uint256 amount ) external {... */\n    tag_27:\n        /* \"contracts/Presale.sol\":5635:5645  msg.sender */\n      caller\n        /* \"contracts/Presale.sol\":5626:5645  owner == msg.sender */\n      0xffffffffffffffffffffffffffffffffffffffff\n      and\n        /* \"contracts/Presale.sol\":5626:5631  owner */\n      0x03\n      0x00\n      swap1\n      sload\n      swap1\n      0x0100\n      exp\n      swap1\n      div\n      0xffffffffffffffffffffffffffffffffffffffff\n      and\n        /* \"contracts/Presale.sol\":5626:5645  owner == msg.sender */\n      0xffffffffffffffffffffffffffffffffffffffff\n      and\n      eq\n        /* \"contracts/Presale.sol\":5617:5660  require( owner == msg.sender, \"Not owner\" ) */\n      tag_103\n      jumpi\n      mload(0x40)\n      0x08c379a000000000000000000000000000000000000000000000000000000000\n      dup2\n      mstore\n      0x04\n      add\n      tag_104\n      swap1\n      tag_105\n      jump\t// in\n    tag_104:\n      mload(0x40)\n      dup1\n      swap2\n      sub\n      swap1\n      revert\n    tag_103:\n        /* \"contracts/Presale.sol\":5671:5686  uint256 balance */\n      0x00\n        /* \"contracts/Presale.sol\":5689:5695  _token */\n      dup4\n        /* \"contracts/Presale.sol\":5689:5705  _token.balanceOf */\n      0xffffffffffffffffffffffffffffffffffffffff\n      and\n      0x70a08231\n        /* \"contracts/Presale.sol\":5714:5718  this */\n      address\n        /* \"contracts/Presale.sol\":5689:5720  _token.balanceOf(address(this)) */\n      mload(0x40)\n      dup3\n      0xffffffff\n      and\n      0xe0\n      shl\n      dup2\n      mstore\n      0x04\n      add\n      tag_106\n      swap2\n      swap1\n      tag_72\n      jump\t// in\n    tag_106:\n      0x20\n      mload(0x40)\n      dup1\n      dup4\n      sub\n      dup2\n      dup7\n      gas\n      staticcall\n      iszero\n      dup1\n      iszero\n      tag_108\n      jumpi\n      returndatasize\n      0x00\n      dup1\n      returndatacopy\n      revert(0x00, returndatasize)\n    tag_108:\n      pop\n      pop\n      pop\n      pop\n      mload(0x40)\n      returndatasize\n      not(0x1f)\n      0x1f\n      dup3\n      add\n      and\n      dup3\n      add\n      dup1\n      0x40\n      mstore\n      pop\n      dup2\n      add\n      swap1\n      tag_109\n      swap2\n      swap1\n      tag_110\n      jump\t// in\n    tag_109:\n        /* \"contracts/Presale.sol\":5671:5720  uint256 balance = _token.balanceOf(address(this)) */\n      swap1\n      pop\n        /* \"contracts/Presale.sol\":5751:5757  amount */\n      dup2\n        /* \"contracts/Presale.sol\":5740:5747  balance */\n      dup2\n        /* \"contracts/Presale.sol\":5740:5757  balance >= amount */\n      lt\n      iszero\n        /* \"contracts/Presale.sol\":5731:5779  require( balance >= amount, \"Insufficient fund\") */\n      tag_111\n      jumpi\n      mload(0x40)\n      0x08c379a000000000000000000000000000000000000000000000000000000000\n      dup2\n      mstore\n      0x04\n      add\n      tag_112\n      swap1\n      tag_113\n      jump\t// in\n    tag_112:\n      mload(0x40)\n      dup1\n      swap2\n      sub\n      swap1\n      revert\n    tag_111:\n        /* \"contracts/Presale.sol\":5790:5796  _token */\n      dup4\n        /* \"contracts/Presale.sol\":5790:5805  _token.transfer */\n      0xffffffffffffffffffffffffffffffffffffffff\n      and\n      0xa9059cbb\n        /* \"contracts/Presale.sol\":5806:5808  to */\n      dup5\n        /* \"contracts/Presale.sol\":5810:5816  amount */\n      dup5\n        /* \"contracts/Presale.sol\":5790:5817  _token.transfer(to, amount) */\n      mload(0x40)\n      dup4\n      0xffffffff\n      and\n      0xe0\n      shl\n      dup2\n      mstore\n      0x04\n      add\n      tag_114\n      swap3\n      swap2\n      swap1\n      tag_115\n      jump\t// in\n    tag_114:\n      0x20\n      mload(0x40)\n      dup1\n      dup4\n      sub\n      dup2\n      0x00\n      dup8\n      gas\n      call\n      iszero\n      dup1\n      iszero\n      tag_117\n      jumpi\n      returndatasize\n      0x00\n      dup1\n      returndatacopy\n      revert(0x00, returndatasize)\n    tag_117:\n      pop\n      pop\n      pop\n      pop\n      mload(0x40)\n      returndatasize\n      not(0x1f)\n      0x1f\n      dup3\n      add\n      and\n      dup3\n      add\n      dup1\n      0x40\n      mstore\n      pop\n      dup2\n      add\n      swap1\n      tag_118\n      swap2\n      swap1\n      tag_119\n      jump\t// in\n    tag_118:\n      pop\n        /* \"contracts/Presale.sol\":5606:5825  {... */\n      pop\n        /* \"contracts/Presale.sol\":5528:5825  function withdrawToken ( IERC20 _token, address to, uint256 amount ) external {... */\n      pop\n      pop\n      pop\n      jump\t// out\n        /* \"contracts/Presale.sol\":5102:5240  function setOwner( address _newOwner ) external  {... */\n    tag_32:\n        /* \"contracts/Presale.sol\":5180:5190  msg.sender */\n      caller\n        /* \"contracts/Presale.sol\":5171:5190  owner == msg.sender */\n      0xffffffffffffffffffffffffffffffffffffffff\n      and\n        /* \"contracts/Presale.sol\":5171:5176  owner */\n      0x03\n      0x00\n      swap1\n      sload\n      swap1\n      0x0100\n      exp\n      swap1\n      div\n      0xffffffffffffffffffffffffffffffffffffffff\n      and\n        /* \"contracts/Presale.sol\":5171:5190  owner == msg.sender */\n      0xffffffffffffffffffffffffffffffffffffffff\n      and\n      eq\n        /* \"contracts/Presale.sol\":5162:5204  require( owner == msg.sender, \"Not owner\") */\n      tag_121\n      jumpi\n      mload(0x40)\n      0x08c379a000000000000000000000000000000000000000000000000000000000\n      dup2\n      mstore\n      0x04\n      add\n      tag_122\n      swap1\n      tag_105\n      jump\t// in\n    tag_122:\n      mload(0x40)\n      dup1\n      swap2\n      sub\n      swap1\n      revert\n    tag_121:\n        /* \"contracts/Presale.sol\":5223:5232  _newOwner */\n      dup1\n        /* \"contracts/Presale.sol\":5215:5220  owner */\n      0x03\n      0x00\n        /* \"contracts/Presale.sol\":5215:5232  owner = _newOwner */\n      0x0100\n      exp\n      dup2\n      sload\n      dup2\n      0xffffffffffffffffffffffffffffffffffffffff\n      mul\n      not\n      and\n      swap1\n      dup4\n      0xffffffffffffffffffffffffffffffffffffffff\n      and\n      mul\n      or\n      swap1\n      sstore\n      pop\n        /* \"contracts/Presale.sol\":5102:5240  function setOwner( address _newOwner ) external  {... */\n      pop\n      jump\t// out\n        /* \"contracts/Presale.sol\":4955:5094  function setToken( address _token ) external {... */\n    tag_36:\n        /* \"contracts/Presale.sol\":5029:5039  msg.sender */\n      caller\n        /* \"contracts/Presale.sol\":5020:5039  owner == msg.sender */\n      0xffffffffffffffffffffffffffffffffffffffff\n      and\n        /* \"contracts/Presale.sol\":5020:5025  owner */\n      0x03\n      0x00\n      swap1\n      sload\n      swap1\n      0x0100\n      exp\n      swap1\n      div\n      0xffffffffffffffffffffffffffffffffffffffff\n      and\n        /* \"contracts/Presale.sol\":5020:5039  owner == msg.sender */\n      0xffffffffffffffffffffffffffffffffffffffff\n      and\n      eq\n        /* \"contracts/Presale.sol\":5011:5053  require( owner == msg.sender, \"Not owner\") */\n      tag_124\n      jumpi\n      mload(0x40)\n      0x08c379a000000000000000000000000000000000000000000000000000000000\n      dup2\n      mstore\n      0x04\n      add\n      tag_125\n      swap1\n      tag_105\n      jump\t// in\n    tag_125:\n      mload(0x40)\n      dup1\n      swap2\n      sub\n      swap1\n      revert\n    tag_124:\n        /* \"contracts/Presale.sol\":5079:5085  _token */\n      dup1\n        /* \"contracts/Presale.sol\":5064:5069  token */\n      0x00\n      dup1\n        /* \"contracts/Presale.sol\":5064:5086  token = IERC20(_token) */\n      0x0100\n      exp\n      dup2\n      sload\n      dup2\n      0xffffffffffffffffffffffffffffffffffffffff\n      mul\n      not\n      and\n      swap1\n      dup4\n      0xffffffffffffffffffffffffffffffffffffffff\n      and\n      mul\n      or\n      swap1\n      sstore\n      pop\n        /* \"contracts/Presale.sol\":4955:5094  function setToken( address _token ) external {... */\n      pop\n      jump\t// out\n        /* \"contracts/Presale.sol\":5248:5520  function withdrawEth( address to, uint256 amount) external {... */\n    tag_41:\n        /* \"contracts/Presale.sol\":5336:5346  msg.sender */\n      caller\n        /* \"contracts/Presale.sol\":5327:5346  owner == msg.sender */\n      0xffffffffffffffffffffffffffffffffffffffff\n      and\n        /* \"contracts/Presale.sol\":5327:5332  owner */\n      0x03\n      0x00\n      swap1\n      sload\n      swap1\n      0x0100\n      exp\n      swap1\n      div\n      0xffffffffffffffffffffffffffffffffffffffff\n      and\n        /* \"contracts/Presale.sol\":5327:5346  owner == msg.sender */\n      0xffffffffffffffffffffffffffffffffffffffff\n      and\n      eq\n        /* \"contracts/Presale.sol\":5318:5361  require( owner == msg.sender, \"Not owner\" ) */\n      tag_127\n      jumpi\n      mload(0x40)\n      0x08c379a000000000000000000000000000000000000000000000000000000000\n      dup2\n      mstore\n      0x04\n      add\n      tag_128\n      swap1\n      tag_105\n      jump\t// in\n    tag_128:\n      mload(0x40)\n      dup1\n      swap2\n      sub\n      swap1\n      revert\n    tag_127:\n        /* \"contracts/Presale.sol\":5373:5388  uint256 balance */\n      0x00\n        /* \"contracts/Presale.sol\":5391:5412  address(this).balance */\n      selfbalance\n        /* \"contracts/Presale.sol\":5373:5412  uint256 balance = address(this).balance */\n      swap1\n      pop\n        /* \"contracts/Presale.sol\":5443:5449  amount */\n      dup2\n        /* \"contracts/Presale.sol\":5432:5439  balance */\n      dup2\n        /* \"contracts/Presale.sol\":5432:5449  balance >= amount */\n      lt\n      iszero\n        /* \"contracts/Presale.sol\":5423:5472  require( balance >= amount, \"Insufficient fund\" ) */\n      tag_129\n      jumpi\n      mload(0x40)\n      0x08c379a000000000000000000000000000000000000000000000000000000000\n      dup2\n      mstore\n      0x04\n      add\n      tag_130\n      swap1\n      tag_113\n      jump\t// in\n    tag_130:\n      mload(0x40)\n      dup1\n      swap2\n      sub\n      swap1\n      revert\n    tag_129:\n        /* \"contracts/Presale.sol\":5492:5494  to */\n      dup3\n        /* \"contracts/Presale.sol\":5483:5504  payable (to).transfer */\n      0xffffffffffffffffffffffffffffffffffffffff\n      and\n        /* \"contracts/Presale.sol\":5483:5512  payable (to).transfer(amount) */\n      0x08fc\n        /* \"contracts/Presale.sol\":5505:5511  amount */\n      dup4\n        /* \"contracts/Presale.sol\":5483:5512  payable (to).transfer(amount) */\n      swap1\n      dup2\n      iszero\n      mul\n      swap1\n      mload(0x40)\n      0x00\n      mload(0x40)\n      dup1\n      dup4\n      sub\n      dup2\n      dup6\n      dup9\n      dup9\n      call\n      swap4\n      pop\n      pop\n      pop\n      pop\n      iszero\n      dup1\n      iszero\n      tag_132\n      jumpi\n      returndatasize\n      0x00\n      dup1\n      returndatacopy\n      revert(0x00, returndatasize)\n    tag_132:\n      pop\n        /* \"contracts/Presale.sol\":5307:5520  {... */\n      pop\n        /* \"contracts/Presale.sol\":5248:5520  function withdrawEth( address to, uint256 amount) external {... */\n      pop\n      pop\n      jump\t// out\n        /* \"contracts/Presale.sol\":3476:4065  function buyToken(uint256 buyTokenAmount) external payable {... */\n    tag_45:\n        /* \"contracts/Presale.sol\":3572:3573  0 */\n      0x00\n        /* \"contracts/Presale.sol\":3555:3569  buyTokenAmount */\n      dup2\n        /* \"contracts/Presale.sol\":3555:3573  buyTokenAmount > 0 */\n      gt\n        /* \"contracts/Presale.sol\":3546:3594  require( buyTokenAmount > 0, \"At least 1 token\") */\n      tag_134\n      jumpi\n      mload(0x40)\n      0x08c379a000000000000000000000000000000000000000000000000000000000\n      dup2\n      mstore\n      0x04\n      add\n      tag_135\n      swap1\n      tag_136\n      jump\t// in\n    tag_135:\n      mload(0x40)\n      dup1\n      swap2\n      sub\n      swap1\n      revert\n    tag_134:\n        /* \"contracts/Presale.sol\":3605:3622  uint256 ethAmount */\n      0x00\n        /* \"contracts/Presale.sol\":3656:3667  price_denom */\n      sload(0x02)\n        /* \"contracts/Presale.sol\":3643:3652  price_num */\n      sload(0x01)\n        /* \"contracts/Presale.sol\":3626:3640  buyTokenAmount */\n      dup4\n        /* \"contracts/Presale.sol\":3626:3652  buyTokenAmount * price_num */\n      tag_137\n      swap2\n      swap1\n      tag_138\n      jump\t// in\n    tag_137:\n        /* \"contracts/Presale.sol\":3625:3667  (buyTokenAmount * price_num) / price_denom */\n      tag_139\n      swap2\n      swap1\n      tag_140\n      jump\t// in\n    tag_139:\n        /* \"contracts/Presale.sol\":3605:3667  uint256 ethAmount = (buyTokenAmount * price_num) / price_denom */\n      swap1\n      pop\n        /* \"contracts/Presale.sol\":3706:3719  startSaleDate */\n      sload(0x04)\n        /* \"contracts/Presale.sol\":3687:3702  block.timestamp */\n      timestamp\n        /* \"contracts/Presale.sol\":3687:3719  block.timestamp >= startSaleDate */\n      lt\n      iszero\n        /* \"contracts/Presale.sol\":3678:3741  require( block.timestamp >= startSaleDate, \"Sale not started\" ) */\n      tag_141\n      jumpi\n      mload(0x40)\n      0x08c379a000000000000000000000000000000000000000000000000000000000\n      dup2\n      mstore\n      0x04\n      add\n      tag_142\n      swap1\n      tag_143\n      jump\t// in\n    tag_142:\n      mload(0x40)\n      dup1\n      swap2\n      sub\n      swap1\n      revert\n    tag_141:\n        /* \"contracts/Presale.sol\":3780:3791  endSaleDate */\n      sload(0x05)\n        /* \"contracts/Presale.sol\":3761:3776  block.timestamp */\n      timestamp\n        /* \"contracts/Presale.sol\":3761:3791  block.timestamp <= endSaleDate */\n      gt\n      iszero\n        /* \"contracts/Presale.sol\":3752:3816  require( block.timestamp <= endSaleDate, \"Sale has been ended\" ) */\n      tag_144\n      jumpi\n      mload(0x40)\n      0x08c379a000000000000000000000000000000000000000000000000000000000\n      dup2\n      mstore\n      0x04\n      add\n      tag_145\n      swap1\n      tag_146\n      jump\t// in\n    tag_145:\n      mload(0x40)\n      dup1\n      swap2\n      sub\n      swap1\n      revert\n    tag_144:\n        /* \"contracts/Presale.sol\":3849:3858  ethAmount */\n      dup1\n        /* \"contracts/Presale.sol\":3836:3845  msg.value */\n      callvalue\n        /* \"contracts/Presale.sol\":3836:3858  msg.value >= ethAmount */\n      lt\n      iszero\n        /* \"contracts/Presale.sol\":3827:3881  require( msg.value >= ethAmount, \"Insufficient fund\" ) */\n      tag_147\n      jumpi\n      mload(0x40)\n      0x08c379a000000000000000000000000000000000000000000000000000000000\n      dup2\n      mstore\n      0x04\n      add\n      tag_148\n      swap1\n      tag_113\n      jump\t// in\n    tag_148:\n      mload(0x40)\n      dup1\n      swap2\n      sub\n      swap1\n      revert\n    tag_147:\n        /* \"contracts/Presale.sol\":3892:3897  token */\n      0x00\n      dup1\n      sload\n      swap1\n      0x0100\n      exp\n      swap1\n      div\n      0xffffffffffffffffffffffffffffffffffffffff\n      and\n        /* \"contracts/Presale.sol\":3892:3906  token.transfer */\n      0xffffffffffffffffffffffffffffffffffffffff\n      and\n      0xa9059cbb\n        /* \"contracts/Presale.sol\":3907:3917  msg.sender */\n      caller\n        /* \"contracts/Presale.sol\":3919:3933  buyTokenAmount */\n      dup5\n        /* \"contracts/Presale.sol\":3892:3934  token.transfer(msg.sender, buyTokenAmount) */\n      mload(0x40)\n      dup4\n      0xffffffff\n      and\n      0xe0\n      shl\n      dup2\n      mstore\n      0x04\n      add\n      tag_149\n      swap3\n      swap2\n      swap1\n      tag_115\n      jump\t// in\n    tag_149:\n      0x20\n      mload(0x40)\n      dup1\n      dup4\n      sub\n      dup2\n      0x00\n      dup8\n      gas\n      call\n      iszero\n      dup1\n      iszero\n      tag_151\n      jumpi\n      returndatasize\n      0x00\n      dup1\n      returndatacopy\n      revert(0x00, returndatasize)\n    tag_151:\n      pop\n      pop\n      pop\n      pop\n      mload(0x40)\n      returndatasize\n      not(0x1f)\n      0x1f\n      dup3\n      add\n      and\n      dup3\n      add\n      dup1\n      0x40\n      mstore\n      pop\n      dup2\n      add\n      swap1\n      tag_152\n      swap2\n      swap1\n      tag_119\n      jump\t// in\n    tag_152:\n      pop\n        /* \"contracts/Presale.sol\":3990:4004  buyTokenAmount */\n      dup2\n        /* \"contracts/Presale.sol\":3976:3986  tokensSold */\n      0x06\n      0x00\n        /* \"contracts/Presale.sol\":3976:4004  tokensSold += buyTokenAmount */\n      dup3\n      dup3\n      sload\n      tag_153\n      swap2\n      swap1\n      tag_154\n      jump\t// in\n    tag_153:\n      swap3\n      pop\n      pop\n      dup2\n      swap1\n      sstore\n      pop\n        /* \"contracts/Presale.sol\":4030:4035  token */\n      0x00\n      dup1\n      sload\n      swap1\n      0x0100\n      exp\n      swap1\n      div\n      0xffffffffffffffffffffffffffffffffffffffff\n      and\n        /* \"contracts/Presale.sol\":4030:4045  token.balanceOf */\n      0xffffffffffffffffffffffffffffffffffffffff\n      and\n      0x70a08231\n        /* \"contracts/Presale.sol\":4046:4056  msg.sender */\n      caller\n        /* \"contracts/Presale.sol\":4030:4057  token.balanceOf(msg.sender) */\n      mload(0x40)\n      dup3\n      0xffffffff\n      and\n      0xe0\n      shl\n      dup2\n      mstore\n      0x04\n      add\n      tag_155\n      swap2\n      swap1\n      tag_72\n      jump\t// in\n    tag_155:\n      0x20\n      mload(0x40)\n      dup1\n      dup4\n      sub\n      dup2\n      dup7\n      gas\n      staticcall\n      iszero\n      dup1\n      iszero\n      tag_157\n      jumpi\n      returndatasize\n      0x00\n      dup1\n      returndatacopy\n      revert(0x00, returndatasize)\n    tag_157:\n      pop\n      pop\n      pop\n      pop\n      mload(0x40)\n      returndatasize\n      not(0x1f)\n      0x1f\n      dup3\n      add\n      and\n      dup3\n      add\n      dup1\n      0x40\n      mstore\n      pop\n      dup2\n      add\n      swap1\n      tag_158\n      swap2\n      swap1\n      tag_110\n      jump\t// in\n    tag_158:\n        /* \"contracts/Presale.sol\":4015:4027  tokenBalance */\n      0x07\n        /* \"contracts/Presale.sol\":4015:4057  tokenBalance = token.balanceOf(msg.sender) */\n      dup2\n      swap1\n      sstore\n      pop\n        /* \"contracts/Presale.sol\":3535:4065  {... */\n      pop\n        /* \"contracts/Presale.sol\":3476:4065  function buyToken(uint256 buyTokenAmount) external payable {... */\n      pop\n      jump\t// out\n        /* \"contracts/Presale.sol\":4577:4722  function getTokenPrice() external view returns (uint256) {... */\n    tag_48:\n        /* \"contracts/Presale.sol\":4625:4632  uint256 */\n      0x00\n        /* \"contracts/Presale.sol\":4641:4659  uint256 tokenPrice */\n      dup1\n        /* \"contracts/Presale.sol\":4683:4694  price_denom */\n      sload(0x02)\n        /* \"contracts/Presale.sol\":4675:4679  1e18 */\n      0x0de0b6b3a7640000\n        /* \"contracts/Presale.sol\":4663:4672  price_num */\n      sload(0x01)\n        /* \"contracts/Presale.sol\":4663:4679  price_num * 1e18 */\n      tag_160\n      swap2\n      swap1\n      tag_138\n      jump\t// in\n    tag_160:\n        /* \"contracts/Presale.sol\":4662:4694  (price_num * 1e18) / price_denom */\n      tag_161\n      swap2\n      swap1\n      tag_140\n      jump\t// in\n    tag_161:\n        /* \"contracts/Presale.sol\":4641:4694  uint256 tokenPrice = (price_num * 1e18) / price_denom */\n      swap1\n      pop\n        /* \"contracts/Presale.sol\":4708:4718  tokenPrice */\n      dup1\n        /* \"contracts/Presale.sol\":4701:4718  return tokenPrice */\n      swap2\n      pop\n      pop\n        /* \"contracts/Presale.sol\":4577:4722  function getTokenPrice() external view returns (uint256) {... */\n      swap1\n      jump\t// out\n        /* \"contracts/Presale.sol\":3091:3116  uint256 public tokensSold */\n    tag_53:\n      sload(0x06)\n      dup2\n      jump\t// out\n        /* \"contracts/Presale.sol\":2932:2956  uint256 public price_num */\n    tag_57:\n      sload(0x01)\n      dup2\n      jump\t// out\n        /* \"contracts/Presale.sol\":4195:4291  function getTokenBalance() external view returns(uint256) {... */\n    tag_61:\n        /* \"contracts/Presale.sol\":4244:4251  uint256 */\n      0x00\n        /* \"contracts/Presale.sol\":4271:4283  tokenBalance */\n      sload(0x07)\n        /* \"contracts/Presale.sol\":4264:4283  return tokenBalance */\n      swap1\n      pop\n        /* \"contracts/Presale.sol\":4195:4291  function getTokenBalance() external view returns(uint256) {... */\n      swap1\n      jump\t// out\n        /* \"contracts/Presale.sol\":4730:4947  function setSaleDate( uint256 _startSaleDate, uint256 _endSaleDate ) external {... */\n    tag_67:\n        /* \"contracts/Presale.sol\":4837:4847  msg.sender */\n      caller\n        /* \"contracts/Presale.sol\":4828:4847  owner == msg.sender */\n      0xffffffffffffffffffffffffffffffffffffffff\n      and\n        /* \"contracts/Presale.sol\":4828:4833  owner */\n      0x03\n      0x00\n      swap1\n      sload\n      swap1\n      0x0100\n      exp\n      swap1\n      div\n      0xffffffffffffffffffffffffffffffffffffffff\n      and\n        /* \"contracts/Presale.sol\":4828:4847  owner == msg.sender */\n      0xffffffffffffffffffffffffffffffffffffffff\n      and\n      eq\n        /* \"contracts/Presale.sol\":4819:4861  require( owner == msg.sender, \"Not owner\") */\n      tag_164\n      jumpi\n      mload(0x40)\n      0x08c379a000000000000000000000000000000000000000000000000000000000\n      dup2\n      mstore\n      0x04\n      add\n      tag_165\n      swap1\n      tag_105\n      jump\t// in\n    tag_165:\n      mload(0x40)\n      dup1\n      swap2\n      sub\n      swap1\n      revert\n    tag_164:\n        /* \"contracts/Presale.sol\":4888:4902  _startSaleDate */\n      dup2\n        /* \"contracts/Presale.sol\":4872:4885  startSaleDate */\n      0x04\n        /* \"contracts/Presale.sol\":4872:4902  startSaleDate = _startSaleDate */\n      dup2\n      swap1\n      sstore\n      pop\n        /* \"contracts/Presale.sol\":4927:4939  _endSaleDate */\n      dup1\n        /* \"contracts/Presale.sol\":4913:4924  endSaleDate */\n      0x05\n        /* \"contracts/Presale.sol\":4913:4939  endSaleDate = _endSaleDate */\n      dup2\n      swap1\n      sstore\n      pop\n        /* \"contracts/Presale.sol\":4730:4947  function setSaleDate( uint256 _startSaleDate, uint256 _endSaleDate ) external {... */\n      pop\n      pop\n      jump\t// out\n        /* \"contracts/Presale.sol\":2996:3016  address public owner */\n    tag_70:\n      0x03\n      0x00\n      swap1\n      sload\n      swap1\n      0x0100\n      exp\n      swap1\n      div\n      0xffffffffffffffffffffffffffffffffffffffff\n      and\n      dup2\n      jump\t// out\n        /* \"contracts/Presale.sol\":4073:4166  function getTokenSold() external view returns( uint256 ) {... */\n    tag_75:\n        /* \"contracts/Presale.sol\":4120:4127  uint256 */\n      0x00\n        /* \"contracts/Presale.sol\":4148:4158  tokensSold */\n      sload(0x06)\n        /* \"contracts/Presale.sol\":4141:4158  return tokensSold */\n      swap1\n      pop\n        /* \"contracts/Presale.sol\":4073:4166  function getTokenSold() external view returns( uint256 ) {... */\n      swap1\n      jump\t// out\n        /* \"contracts/Presale.sol\":3123:3150  uint256 public tokenBalance */\n    tag_79:\n      sload(0x07)\n      dup2\n      jump\t// out\n        /* \"contracts/Presale.sol\":3023:3051  uint256 public startSaleDate */\n    tag_83:\n      sload(0x04)\n      dup2\n      jump\t// out\n        /* \"contracts/Presale.sol\":3058:3084  uint256 public endSaleDate */\n    tag_87:\n      sload(0x05)\n      dup2\n      jump\t// out\n        /* \"contracts/Presale.sol\":2963:2989  uint256 public price_denom */\n    tag_91:\n      sload(0x02)\n      dup2\n      jump\t// out\n        /* \"contracts/Presale.sol\":4347:4549  function setPrice( uint256 _price_num, uint256 _price_denom ) external {... */\n    tag_96:\n        /* \"contracts/Presale.sol\":4447:4457  msg.sender */\n      caller\n        /* \"contracts/Presale.sol\":4438:4457  owner == msg.sender */\n      0xffffffffffffffffffffffffffffffffffffffff\n      and\n        /* \"contracts/Presale.sol\":4438:4443  owner */\n      0x03\n      0x00\n      swap1\n      sload\n      swap1\n      0x0100\n      exp\n      swap1\n      div\n      0xffffffffffffffffffffffffffffffffffffffff\n      and\n        /* \"contracts/Presale.sol\":4438:4457  owner == msg.sender */\n      0xffffffffffffffffffffffffffffffffffffffff\n      and\n      eq\n        /* \"contracts/Presale.sol\":4429:4471  require( owner == msg.sender, \"Not owner\") */\n      tag_168\n      jumpi\n      mload(0x40)\n      0x08c379a000000000000000000000000000000000000000000000000000000000\n      dup2\n      mstore\n      0x04\n      add\n      tag_169\n      swap1\n      tag_105\n      jump\t// in\n    tag_169:\n      mload(0x40)\n      dup1\n      swap2\n      sub\n      swap1\n      revert\n    tag_168:\n        /* \"contracts/Presale.sol\":4494:4504  _price_num */\n      dup2\n        /* \"contracts/Presale.sol\":4482:4491  price_num */\n      0x01\n        /* \"contracts/Presale.sol\":4482:4504  price_num = _price_num */\n      dup2\n      swap1\n      sstore\n      pop\n        /* \"contracts/Presale.sol\":4529:4541  _price_denom */\n      dup1\n        /* \"contracts/Presale.sol\":4515:4526  price_denom */\n      0x02\n        /* \"contracts/Presale.sol\":4515:4541  price_denom = _price_denom */\n      dup2\n      swap1\n      sstore\n      pop\n        /* \"contracts/Presale.sol\":4347:4549  function setPrice( uint256 _price_num, uint256 _price_denom ) external {... */\n      pop\n      pop\n      jump\t// out\n        /* \"contracts/Presale.sol\":2906:2925  IERC20 public token */\n    tag_99:\n      0x00\n      dup1\n      sload\n      swap1\n      0x0100\n      exp\n      swap1\n      div\n      0xffffffffffffffffffffffffffffffffffffffff\n      and\n      dup2\n      jump\t// out\n        /* \"#utility.yul\":88:205   */\n    tag_171:\n        /* \"#utility.yul\":197:198   */\n      0x00\n        /* \"#utility.yul\":194:195   */\n      dup1\n        /* \"#utility.yul\":187:199   */\n      revert\n        /* \"#utility.yul\":334:460   */\n    tag_173:\n        /* \"#utility.yul\":371:378   */\n      0x00\n        /* \"#utility.yul\":411:453   */\n      0xffffffffffffffffffffffffffffffffffffffff\n        /* \"#utility.yul\":404:409   */\n      dup3\n        /* \"#utility.yul\":400:454   */\n      and\n        /* \"#utility.yul\":389:454   */\n      swap1\n      pop\n        /* \"#utility.yul\":334:460   */\n      swap2\n      swap1\n      pop\n      jump\t// out\n        /* \"#utility.yul\":466:562   */\n    tag_174:\n        /* \"#utility.yul\":503:510   */\n      0x00\n        /* \"#utility.yul\":532:556   */\n      tag_213\n        /* \"#utility.yul\":550:555   */\n      dup3\n        /* \"#utility.yul\":532:556   */\n      tag_173\n      jump\t// in\n    tag_213:\n        /* \"#utility.yul\":521:556   */\n      swap1\n      pop\n        /* \"#utility.yul\":466:562   */\n      swap2\n      swap1\n      pop\n      jump\t// out\n        /* \"#utility.yul\":568:677   */\n    tag_175:\n        /* \"#utility.yul\":618:625   */\n      0x00\n        /* \"#utility.yul\":647:671   */\n      tag_215\n        /* \"#utility.yul\":665:670   */\n      dup3\n        /* \"#utility.yul\":647:671   */\n      tag_174\n      jump\t// in\n    tag_215:\n        /* \"#utility.yul\":636:671   */\n      swap1\n      pop\n        /* \"#utility.yul\":568:677   */\n      swap2\n      swap1\n      pop\n      jump\t// out\n        /* \"#utility.yul\":683:831   */\n    tag_176:\n        /* \"#utility.yul\":769:806   */\n      tag_217\n        /* \"#utility.yul\":800:805   */\n      dup2\n        /* \"#utility.yul\":769:806   */\n      tag_175\n      jump\t// in\n    tag_217:\n        /* \"#utility.yul\":762:767   */\n      dup2\n        /* \"#utility.yul\":759:807   */\n      eq\n        /* \"#utility.yul\":749:825   */\n      tag_218\n      jumpi\n        /* \"#utility.yul\":821:822   */\n      0x00\n        /* \"#utility.yul\":818:819   */\n      dup1\n        /* \"#utility.yul\":811:823   */\n      revert\n        /* \"#utility.yul\":749:825   */\n    tag_218:\n        /* \"#utility.yul\":683:831   */\n      pop\n      jump\t// out\n        /* \"#utility.yul\":837:1002   */\n    tag_177:\n        /* \"#utility.yul\":896:901   */\n      0x00\n        /* \"#utility.yul\":934:940   */\n      dup2\n        /* \"#utility.yul\":921:941   */\n      calldataload\n        /* \"#utility.yul\":912:941   */\n      swap1\n      pop\n        /* \"#utility.yul\":950:996   */\n      tag_220\n        /* \"#utility.yul\":990:995   */\n      dup2\n        /* \"#utility.yul\":950:996   */\n      tag_176\n      jump\t// in\n    tag_220:\n        /* \"#utility.yul\":837:1002   */\n      swap3\n      swap2\n      pop\n      pop\n      jump\t// out\n        /* \"#utility.yul\":1008:1130   */\n    tag_178:\n        /* \"#utility.yul\":1081:1105   */\n      tag_222\n        /* \"#utility.yul\":1099:1104   */\n      dup2\n        /* \"#utility.yul\":1081:1105   */\n      tag_174\n      jump\t// in\n    tag_222:\n        /* \"#utility.yul\":1074:1079   */\n      dup2\n        /* \"#utility.yul\":1071:1106   */\n      eq\n        /* \"#utility.yul\":1061:1124   */\n      tag_223\n      jumpi\n        /* \"#utility.yul\":1120:1121   */\n      0x00\n        /* \"#utility.yul\":1117:1118   */\n      dup1\n        /* \"#utility.yul\":1110:1122   */\n      revert\n        /* \"#utility.yul\":1061:1124   */\n    tag_223:\n        /* \"#utility.yul\":1008:1130   */\n      pop\n      jump\t// out\n        /* \"#utility.yul\":1136:1275   */\n    tag_179:\n        /* \"#utility.yul\":1182:1187   */\n      0x00\n        /* \"#utility.yul\":1220:1226   */\n      dup2\n        /* \"#utility.yul\":1207:1227   */\n      calldataload\n        /* \"#utility.yul\":1198:1227   */\n      swap1\n      pop\n        /* \"#utility.yul\":1236:1269   */\n      tag_225\n        /* \"#utility.yul\":1263:1268   */\n      dup2\n        /* \"#utility.yul\":1236:1269   */\n      tag_178\n      jump\t// in\n    tag_225:\n        /* \"#utility.yul\":1136:1275   */\n      swap3\n      swap2\n      pop\n      pop\n      jump\t// out\n        /* \"#utility.yul\":1281:1358   */\n    tag_180:\n        /* \"#utility.yul\":1318:1325   */\n      0x00\n        /* \"#utility.yul\":1347:1352   */\n      dup2\n        /* \"#utility.yul\":1336:1352   */\n      swap1\n      pop\n        /* \"#utility.yul\":1281:1358   */\n      swap2\n      swap1\n      pop\n      jump\t// out\n        /* \"#utility.yul\":1364:1486   */\n    tag_181:\n        /* \"#utility.yul\":1437:1461   */\n      tag_228\n        /* \"#utility.yul\":1455:1460   */\n      dup2\n        /* \"#utility.yul\":1437:1461   */\n      tag_180\n      jump\t// in\n    tag_228:\n        /* \"#utility.yul\":1430:1435   */\n      dup2\n        /* \"#utility.yul\":1427:1462   */\n      eq\n        /* \"#utility.yul\":1417:1480   */\n      tag_229\n      jumpi\n        /* \"#utility.yul\":1476:1477   */\n      0x00\n        /* \"#utility.yul\":1473:1474   */\n      dup1\n        /* \"#utility.yul\":1466:1478   */\n      revert\n        /* \"#utility.yul\":1417:1480   */\n    tag_229:\n        /* \"#utility.yul\":1364:1486   */\n      pop\n      jump\t// out\n        /* \"#utility.yul\":1492:1631   */\n    tag_182:\n        /* \"#utility.yul\":1538:1543   */\n      0x00\n        /* \"#utility.yul\":1576:1582   */\n      dup2\n        /* \"#utility.yul\":1563:1583   */\n      calldataload\n        /* \"#utility.yul\":1554:1583   */\n      swap1\n      pop\n        /* \"#utility.yul\":1592:1625   */\n      tag_231\n        /* \"#utility.yul\":1619:1624   */\n      dup2\n        /* \"#utility.yul\":1592:1625   */\n      tag_181\n      jump\t// in\n    tag_231:\n        /* \"#utility.yul\":1492:1631   */\n      swap3\n      swap2\n      pop\n      pop\n      jump\t// out\n        /* \"#utility.yul\":1637:2282   */\n    tag_26:\n        /* \"#utility.yul\":1727:1733   */\n      0x00\n        /* \"#utility.yul\":1735:1741   */\n      dup1\n        /* \"#utility.yul\":1743:1749   */\n      0x00\n        /* \"#utility.yul\":1792:1794   */\n      0x60\n        /* \"#utility.yul\":1780:1789   */\n      dup5\n        /* \"#utility.yul\":1771:1778   */\n      dup7\n        /* \"#utility.yul\":1767:1790   */\n      sub\n        /* \"#utility.yul\":1763:1795   */\n      slt\n        /* \"#utility.yul\":1760:1879   */\n      iszero\n      tag_233\n      jumpi\n        /* \"#utility.yul\":1798:1877   */\n      tag_234\n      tag_171\n      jump\t// in\n    tag_234:\n        /* \"#utility.yul\":1760:1879   */\n    tag_233:\n        /* \"#utility.yul\":1918:1919   */\n      0x00\n        /* \"#utility.yul\":1943:2009   */\n      tag_235\n        /* \"#utility.yul\":2001:2008   */\n      dup7\n        /* \"#utility.yul\":1992:1998   */\n      dup3\n        /* \"#utility.yul\":1981:1990   */\n      dup8\n        /* \"#utility.yul\":1977:1999   */\n      add\n        /* \"#utility.yul\":1943:2009   */\n      tag_177\n      jump\t// in\n    tag_235:\n        /* \"#utility.yul\":1933:2009   */\n      swap4\n      pop\n        /* \"#utility.yul\":1889:2019   */\n      pop\n        /* \"#utility.yul\":2058:2060   */\n      0x20\n        /* \"#utility.yul\":2084:2137   */\n      tag_236\n        /* \"#utility.yul\":2129:2136   */\n      dup7\n        /* \"#utility.yul\":2120:2126   */\n      dup3\n        /* \"#utility.yul\":2109:2118   */\n      dup8\n        /* \"#utility.yul\":2105:2127   */\n      add\n        /* \"#utility.yul\":2084:2137   */\n      tag_179\n      jump\t// in\n    tag_236:\n        /* \"#utility.yul\":2074:2137   */\n      swap3\n      pop\n        /* \"#utility.yul\":2029:2147   */\n      pop\n        /* \"#utility.yul\":2186:2188   */\n      0x40\n        /* \"#utility.yul\":2212:2265   */\n      tag_237\n        /* \"#utility.yul\":2257:2264   */\n      dup7\n        /* \"#utility.yul\":2248:2254   */\n      dup3\n        /* \"#utility.yul\":2237:2246   */\n      dup8\n        /* \"#utility.yul\":2233:2255   */\n      add\n        /* \"#utility.yul\":2212:2265   */\n      tag_182\n      jump\t// in\n    tag_237:\n        /* \"#utility.yul\":2202:2265   */\n      swap2\n      pop\n        /* \"#utility.yul\":2157:2275   */\n      pop\n        /* \"#utility.yul\":1637:2282   */\n      swap3\n      pop\n      swap3\n      pop\n      swap3\n      jump\t// out\n        /* \"#utility.yul\":2288:2617   */\n    tag_31:\n        /* \"#utility.yul\":2347:2353   */\n      0x00\n        /* \"#utility.yul\":2396:2398   */\n      0x20\n        /* \"#utility.yul\":2384:2393   */\n      dup3\n        /* \"#utility.yul\":2375:2382   */\n      dup5\n        /* \"#utility.yul\":2371:2394   */\n      sub\n        /* \"#utility.yul\":2367:2399   */\n      slt\n        /* \"#utility.yul\":2364:2483   */\n      iszero\n      tag_239\n      jumpi\n        /* \"#utility.yul\":2402:2481   */\n      tag_240\n      tag_171\n      jump\t// in\n    tag_240:\n        /* \"#utility.yul\":2364:2483   */\n    tag_239:\n        /* \"#utility.yul\":2522:2523   */\n      0x00\n        /* \"#utility.yul\":2547:2600   */\n      tag_241\n        /* \"#utility.yul\":2592:2599   */\n      dup5\n        /* \"#utility.yul\":2583:2589   */\n      dup3\n        /* \"#utility.yul\":2572:2581   */\n      dup6\n        /* \"#utility.yul\":2568:2590   */\n      add\n        /* \"#utility.yul\":2547:2600   */\n      tag_179\n      jump\t// in\n    tag_241:\n        /* \"#utility.yul\":2537:2600   */\n      swap2\n      pop\n        /* \"#utility.yul\":2493:2610   */\n      pop\n        /* \"#utility.yul\":2288:2617   */\n      swap3\n      swap2\n      pop\n      pop\n      jump\t// out\n        /* \"#utility.yul\":2623:3097   */\n    tag_40:\n        /* \"#utility.yul\":2691:2697   */\n      0x00\n        /* \"#utility.yul\":2699:2705   */\n      dup1\n        /* \"#utility.yul\":2748:2750   */\n      0x40\n        /* \"#utility.yul\":2736:2745   */\n      dup4\n        /* \"#utility.yul\":2727:2734   */\n      dup6\n        /* \"#utility.yul\":2723:2746   */\n      sub\n        /* \"#utility.yul\":2719:2751   */\n      slt\n        /* \"#utility.yul\":2716:2835   */\n      iszero\n      tag_243\n      jumpi\n        /* \"#utility.yul\":2754:2833   */\n      tag_244\n      tag_171\n      jump\t// in\n    tag_244:\n        /* \"#utility.yul\":2716:2835   */\n    tag_243:\n        /* \"#utility.yul\":2874:2875   */\n      0x00\n        /* \"#utility.yul\":2899:2952   */\n      tag_245\n        /* \"#utility.yul\":2944:2951   */\n      dup6\n        /* \"#utility.yul\":2935:2941   */\n      dup3\n        /* \"#utility.yul\":2924:2933   */\n      dup7\n        /* \"#utility.yul\":2920:2942   */\n      add\n        /* \"#utility.yul\":2899:2952   */\n      tag_179\n      jump\t// in\n    tag_245:\n        /* \"#utility.yul\":2889:2952   */\n      swap3\n      pop\n        /* \"#utility.yul\":2845:2962   */\n      pop\n        /* \"#utility.yul\":3001:3003   */\n      0x20\n        /* \"#utility.yul\":3027:3080   */\n      tag_246\n        /* \"#utility.yul\":3072:3079   */\n      dup6\n        /* \"#utility.yul\":3063:3069   */\n      dup3\n        /* \"#utility.yul\":3052:3061   */\n      dup7\n        /* \"#utility.yul\":3048:3070   */\n      add\n        /* \"#utility.yul\":3027:3080   */\n      tag_182\n      jump\t// in\n    tag_246:\n        /* \"#utility.yul\":3017:3080   */\n      swap2\n      pop\n        /* \"#utility.yul\":2972:3090   */\n      pop\n        /* \"#utility.yul\":2623:3097   */\n      swap3\n      pop\n      swap3\n      swap1\n      pop\n      jump\t// out\n        /* \"#utility.yul\":3103:3432   */\n    tag_44:\n        /* \"#utility.yul\":3162:3168   */\n      0x00\n        /* \"#utility.yul\":3211:3213   */\n      0x20\n        /* \"#utility.yul\":3199:3208   */\n      dup3\n        /* \"#utility.yul\":3190:3197   */\n      dup5\n        /* \"#utility.yul\":3186:3209   */\n      sub\n        /* \"#utility.yul\":3182:3214   */\n      slt\n        /* \"#utility.yul\":3179:3298   */\n      iszero\n      tag_248\n      jumpi\n        /* \"#utility.yul\":3217:3296   */\n      tag_249\n      tag_171\n      jump\t// in\n    tag_249:\n        /* \"#utility.yul\":3179:3298   */\n    tag_248:\n        /* \"#utility.yul\":3337:3338   */\n      0x00\n        /* \"#utility.yul\":3362:3415   */\n      tag_250\n        /* \"#utility.yul\":3407:3414   */\n      dup5\n        /* \"#utility.yul\":3398:3404   */\n      dup3\n        /* \"#utility.yul\":3387:3396   */\n      dup6\n        /* \"#utility.yul\":3383:3405   */\n      add\n        /* \"#utility.yul\":3362:3415   */\n      tag_182\n      jump\t// in\n    tag_250:\n        /* \"#utility.yul\":3352:3415   */\n      swap2\n      pop\n        /* \"#utility.yul\":3308:3425   */\n      pop\n        /* \"#utility.yul\":3103:3432   */\n      swap3\n      swap2\n      pop\n      pop\n      jump\t// out\n        /* \"#utility.yul\":3438:3556   */\n    tag_183:\n        /* \"#utility.yul\":3525:3549   */\n      tag_252\n        /* \"#utility.yul\":3543:3548   */\n      dup2\n        /* \"#utility.yul\":3525:3549   */\n      tag_180\n      jump\t// in\n    tag_252:\n        /* \"#utility.yul\":3520:3523   */\n      dup3\n        /* \"#utility.yul\":3513:3550   */\n      mstore\n        /* \"#utility.yul\":3438:3556   */\n      pop\n      pop\n      jump\t// out\n        /* \"#utility.yul\":3562:3784   */\n    tag_50:\n        /* \"#utility.yul\":3655:3659   */\n      0x00\n        /* \"#utility.yul\":3693:3695   */\n      0x20\n        /* \"#utility.yul\":3682:3691   */\n      dup3\n        /* \"#utility.yul\":3678:3696   */\n      add\n        /* \"#utility.yul\":3670:3696   */\n      swap1\n      pop\n        /* \"#utility.yul\":3706:3777   */\n      tag_254\n        /* \"#utility.yul\":3774:3775   */\n      0x00\n        /* \"#utility.yul\":3763:3772   */\n      dup4\n        /* \"#utility.yul\":3759:3776   */\n      add\n        /* \"#utility.yul\":3750:3756   */\n      dup5\n        /* \"#utility.yul\":3706:3777   */\n      tag_183\n      jump\t// in\n    tag_254:\n        /* \"#utility.yul\":3562:3784   */\n      swap3\n      swap2\n      pop\n      pop\n      jump\t// out\n        /* \"#utility.yul\":3790:4264   */\n    tag_66:\n        /* \"#utility.yul\":3858:3864   */\n      0x00\n        /* \"#utility.yul\":3866:3872   */\n      dup1\n        /* \"#utility.yul\":3915:3917   */\n      0x40\n        /* \"#utility.yul\":3903:3912   */\n      dup4\n        /* \"#utility.yul\":3894:3901   */\n      dup6\n        /* \"#utility.yul\":3890:3913   */\n      sub\n        /* \"#utility.yul\":3886:3918   */\n      slt\n        /* \"#utility.yul\":3883:4002   */\n      iszero\n      tag_256\n      jumpi\n        /* \"#utility.yul\":3921:4000   */\n      tag_257\n      tag_171\n      jump\t// in\n    tag_257:\n        /* \"#utility.yul\":3883:4002   */\n    tag_256:\n        /* \"#utility.yul\":4041:4042   */\n      0x00\n        /* \"#utility.yul\":4066:4119   */\n      tag_258\n        /* \"#utility.yul\":4111:4118   */\n      dup6\n        /* \"#utility.yul\":4102:4108   */\n      dup3\n        /* \"#utility.yul\":4091:4100   */\n      dup7\n        /* \"#utility.yul\":4087:4109   */\n      add\n        /* \"#utility.yul\":4066:4119   */\n      tag_182\n      jump\t// in\n    tag_258:\n        /* \"#utility.yul\":4056:4119   */\n      swap3\n      pop\n        /* \"#utility.yul\":4012:4129   */\n      pop\n        /* \"#utility.yul\":4168:4170   */\n      0x20\n        /* \"#utility.yul\":4194:4247   */\n      tag_259\n        /* \"#utility.yul\":4239:4246   */\n      dup6\n        /* \"#utility.yul\":4230:4236   */\n      dup3\n        /* \"#utility.yul\":4219:4228   */\n      dup7\n        /* \"#utility.yul\":4215:4237   */\n      add\n        /* \"#utility.yul\":4194:4247   */\n      tag_182\n      jump\t// in\n    tag_259:\n        /* \"#utility.yul\":4184:4247   */\n      swap2\n      pop\n        /* \"#utility.yul\":4139:4257   */\n      pop\n        /* \"#utility.yul\":3790:4264   */\n      swap3\n      pop\n      swap3\n      swap1\n      pop\n      jump\t// out\n        /* \"#utility.yul\":4270:4388   */\n    tag_184:\n        /* \"#utility.yul\":4357:4381   */\n      tag_261\n        /* \"#utility.yul\":4375:4380   */\n      dup2\n        /* \"#utility.yul\":4357:4381   */\n      tag_174\n      jump\t// in\n    tag_261:\n        /* \"#utility.yul\":4352:4355   */\n      dup3\n        /* \"#utility.yul\":4345:4382   */\n      mstore\n        /* \"#utility.yul\":4270:4388   */\n      pop\n      pop\n      jump\t// out\n        /* \"#utility.yul\":4394:4616   */\n    tag_72:\n        /* \"#utility.yul\":4487:4491   */\n      0x00\n        /* \"#utility.yul\":4525:4527   */\n      0x20\n        /* \"#utility.yul\":4514:4523   */\n      dup3\n        /* \"#utility.yul\":4510:4528   */\n      add\n        /* \"#utility.yul\":4502:4528   */\n      swap1\n      pop\n        /* \"#utility.yul\":4538:4609   */\n      tag_263\n        /* \"#utility.yul\":4606:4607   */\n      0x00\n        /* \"#utility.yul\":4595:4604   */\n      dup4\n        /* \"#utility.yul\":4591:4608   */\n      add\n        /* \"#utility.yul\":4582:4588   */\n      dup5\n        /* \"#utility.yul\":4538:4609   */\n      tag_184\n      jump\t// in\n    tag_263:\n        /* \"#utility.yul\":4394:4616   */\n      swap3\n      swap2\n      pop\n      pop\n      jump\t// out\n        /* \"#utility.yul\":4622:4682   */\n    tag_185:\n        /* \"#utility.yul\":4650:4653   */\n      0x00\n        /* \"#utility.yul\":4671:4676   */\n      dup2\n        /* \"#utility.yul\":4664:4676   */\n      swap1\n      pop\n        /* \"#utility.yul\":4622:4682   */\n      swap2\n      swap1\n      pop\n      jump\t// out\n        /* \"#utility.yul\":4688:4830   */\n    tag_186:\n        /* \"#utility.yul\":4738:4747   */\n      0x00\n        /* \"#utility.yul\":4771:4824   */\n      tag_266\n        /* \"#utility.yul\":4789:4823   */\n      tag_267\n        /* \"#utility.yul\":4798:4822   */\n      tag_268\n        /* \"#utility.yul\":4816:4821   */\n      dup5\n        /* \"#utility.yul\":4798:4822   */\n      tag_173\n      jump\t// in\n    tag_268:\n        /* \"#utility.yul\":4789:4823   */\n      tag_185\n      jump\t// in\n    tag_267:\n        /* \"#utility.yul\":4771:4824   */\n      tag_173\n      jump\t// in\n    tag_266:\n        /* \"#utility.yul\":4758:4824   */\n      swap1\n      pop\n        /* \"#utility.yul\":4688:4830   */\n      swap2\n      swap1\n      pop\n      jump\t// out\n        /* \"#utility.yul\":4836:4962   */\n    tag_187:\n        /* \"#utility.yul\":4886:4895   */\n      0x00\n        /* \"#utility.yul\":4919:4956   */\n      tag_270\n        /* \"#utility.yul\":4950:4955   */\n      dup3\n        /* \"#utility.yul\":4919:4956   */\n      tag_186\n      jump\t// in\n    tag_270:\n        /* \"#utility.yul\":4906:4956   */\n      swap1\n      pop\n        /* \"#utility.yul\":4836:4962   */\n      swap2\n      swap1\n      pop\n      jump\t// out\n        /* \"#utility.yul\":4968:5107   */\n    tag_188:\n        /* \"#utility.yul\":5031:5040   */\n      0x00\n        /* \"#utility.yul\":5064:5101   */\n      tag_272\n        /* \"#utility.yul\":5095:5100   */\n      dup3\n        /* \"#utility.yul\":5064:5101   */\n      tag_187\n      jump\t// in\n    tag_272:\n        /* \"#utility.yul\":5051:5101   */\n      swap1\n      pop\n        /* \"#utility.yul\":4968:5107   */\n      swap2\n      swap1\n      pop\n      jump\t// out\n        /* \"#utility.yul\":5113:5270   */\n    tag_189:\n        /* \"#utility.yul\":5213:5263   */\n      tag_274\n        /* \"#utility.yul\":5257:5262   */\n      dup2\n        /* \"#utility.yul\":5213:5263   */\n      tag_188\n      jump\t// in\n    tag_274:\n        /* \"#utility.yul\":5208:5211   */\n      dup3\n        /* \"#utility.yul\":5201:5264   */\n      mstore\n        /* \"#utility.yul\":5113:5270   */\n      pop\n      pop\n      jump\t// out\n        /* \"#utility.yul\":5276:5524   */\n    tag_101:\n        /* \"#utility.yul\":5382:5386   */\n      0x00\n        /* \"#utility.yul\":5420:5422   */\n      0x20\n        /* \"#utility.yul\":5409:5418   */\n      dup3\n        /* \"#utility.yul\":5405:5423   */\n      add\n        /* \"#utility.yul\":5397:5423   */\n      swap1\n      pop\n        /* \"#utility.yul\":5433:5517   */\n      tag_276\n        /* \"#utility.yul\":5514:5515   */\n      0x00\n        /* \"#utility.yul\":5503:5512   */\n      dup4\n        /* \"#utility.yul\":5499:5516   */\n      add\n        /* \"#utility.yul\":5490:5496   */\n      dup5\n        /* \"#utility.yul\":5433:5517   */\n      tag_189\n      jump\t// in\n    tag_276:\n        /* \"#utility.yul\":5276:5524   */\n      swap3\n      swap2\n      pop\n      pop\n      jump\t// out\n        /* \"#utility.yul\":5530:5699   */\n    tag_190:\n        /* \"#utility.yul\":5614:5625   */\n      0x00\n        /* \"#utility.yul\":5648:5654   */\n      dup3\n        /* \"#utility.yul\":5643:5646   */\n      dup3\n        /* \"#utility.yul\":5636:5655   */\n      mstore\n        /* \"#utility.yul\":5688:5692   */\n      0x20\n        /* \"#utility.yul\":5683:5686   */\n      dup3\n        /* \"#utility.yul\":5679:5693   */\n      add\n        /* \"#utility.yul\":5664:5693   */\n      swap1\n      pop\n        /* \"#utility.yul\":5530:5699   */\n      swap3\n      swap2\n      pop\n      pop\n      jump\t// out\n        /* \"#utility.yul\":5705:5864   */\n    tag_191:\n        /* \"#utility.yul\":5845:5856   */\n      0x4e6f74206f776e65720000000000000000000000000000000000000000000000\n        /* \"#utility.yul\":5841:5842   */\n      0x00\n        /* \"#utility.yul\":5833:5839   */\n      dup3\n        /* \"#utility.yul\":5829:5843   */\n      add\n        /* \"#utility.yul\":5822:5857   */\n      mstore\n        /* \"#utility.yul\":5705:5864   */\n      pop\n      jump\t// out\n        /* \"#utility.yul\":5870:6235   */\n    tag_192:\n        /* \"#utility.yul\":6012:6015   */\n      0x00\n        /* \"#utility.yul\":6033:6099   */\n      tag_280\n        /* \"#utility.yul\":6097:6098   */\n      0x09\n        /* \"#utility.yul\":6092:6095   */\n      dup4\n        /* \"#utility.yul\":6033:6099   */\n      tag_190\n      jump\t// in\n    tag_280:\n        /* \"#utility.yul\":6026:6099   */\n      swap2\n      pop\n        /* \"#utility.yul\":6108:6201   */\n      tag_281\n        /* \"#utility.yul\":6197:6200   */\n      dup3\n        /* \"#utility.yul\":6108:6201   */\n      tag_191\n      jump\t// in\n    tag_281:\n        /* \"#utility.yul\":6226:6228   */\n      0x20\n        /* \"#utility.yul\":6221:6224   */\n      dup3\n        /* \"#utility.yul\":6217:6229   */\n      add\n        /* \"#utility.yul\":6210:6229   */\n      swap1\n      pop\n        /* \"#utility.yul\":5870:6235   */\n      swap2\n      swap1\n      pop\n      jump\t// out\n        /* \"#utility.yul\":6241:6660   */\n    tag_105:\n        /* \"#utility.yul\":6407:6411   */\n      0x00\n        /* \"#utility.yul\":6445:6447   */\n      0x20\n        /* \"#utility.yul\":6434:6443   */\n      dup3\n        /* \"#utility.yul\":6430:6448   */\n      add\n        /* \"#utility.yul\":6422:6448   */\n      swap1\n      pop\n        /* \"#utility.yul\":6494:6503   */\n      dup2\n        /* \"#utility.yul\":6488:6492   */\n      dup2\n        /* \"#utility.yul\":6484:6504   */\n      sub\n        /* \"#utility.yul\":6480:6481   */\n      0x00\n        /* \"#utility.yul\":6469:6478   */\n      dup4\n        /* \"#utility.yul\":6465:6482   */\n      add\n        /* \"#utility.yul\":6458:6505   */\n      mstore\n        /* \"#utility.yul\":6522:6653   */\n      tag_283\n        /* \"#utility.yul\":6648:6652   */\n      dup2\n        /* \"#utility.yul\":6522:6653   */\n      tag_192\n      jump\t// in\n    tag_283:\n        /* \"#utility.yul\":6514:6653   */\n      swap1\n      pop\n        /* \"#utility.yul\":6241:6660   */\n      swap2\n      swap1\n      pop\n      jump\t// out\n        /* \"#utility.yul\":6666:6809   */\n    tag_193:\n        /* \"#utility.yul\":6723:6728   */\n      0x00\n        /* \"#utility.yul\":6754:6760   */\n      dup2\n        /* \"#utility.yul\":6748:6761   */\n      mload\n        /* \"#utility.yul\":6739:6761   */\n      swap1\n      pop\n        /* \"#utility.yul\":6770:6803   */\n      tag_285\n        /* \"#utility.yul\":6797:6802   */\n      dup2\n        /* \"#utility.yul\":6770:6803   */\n      tag_181\n      jump\t// in\n    tag_285:\n        /* \"#utility.yul\":6666:6809   */\n      swap3\n      swap2\n      pop\n      pop\n      jump\t// out\n        /* \"#utility.yul\":6815:7166   */\n    tag_110:\n        /* \"#utility.yul\":6885:6891   */\n      0x00\n        /* \"#utility.yul\":6934:6936   */\n      0x20\n        /* \"#utility.yul\":6922:6931   */\n      dup3\n        /* \"#utility.yul\":6913:6920   */\n      dup5\n        /* \"#utility.yul\":6909:6932   */\n      sub\n        /* \"#utility.yul\":6905:6937   */\n      slt\n        /* \"#utility.yul\":6902:7021   */\n      iszero\n      tag_287\n      jumpi\n        /* \"#utility.yul\":6940:7019   */\n      tag_288\n      tag_171\n      jump\t// in\n    tag_288:\n        /* \"#utility.yul\":6902:7021   */\n    tag_287:\n        /* \"#utility.yul\":7060:7061   */\n      0x00\n        /* \"#utility.yul\":7085:7149   */\n      tag_289\n        /* \"#utility.yul\":7141:7148   */\n      dup5\n        /* \"#utility.yul\":7132:7138   */\n      dup3\n        /* \"#utility.yul\":7121:7130   */\n      dup6\n        /* \"#utility.yul\":7117:7139   */\n      add\n        /* \"#utility.yul\":7085:7149   */\n      tag_193\n      jump\t// in\n    tag_289:\n        /* \"#utility.yul\":7075:7149   */\n      swap2\n      pop\n        /* \"#utility.yul\":7031:7159   */\n      pop\n        /* \"#utility.yul\":6815:7166   */\n      swap3\n      swap2\n      pop\n      pop\n      jump\t// out\n        /* \"#utility.yul\":7172:7339   */\n    tag_194:\n        /* \"#utility.yul\":7312:7331   */\n      0x496e73756666696369656e742066756e64000000000000000000000000000000\n        /* \"#utility.yul\":7308:7309   */\n      0x00\n        /* \"#utility.yul\":7300:7306   */\n      dup3\n        /* \"#utility.yul\":7296:7310   */\n      add\n        /* \"#utility.yul\":7289:7332   */\n      mstore\n        /* \"#utility.yul\":7172:7339   */\n      pop\n      jump\t// out\n        /* \"#utility.yul\":7345:7711   */\n    tag_195:\n        /* \"#utility.yul\":7487:7490   */\n      0x00\n        /* \"#utility.yul\":7508:7575   */\n      tag_292\n        /* \"#utility.yul\":7572:7574   */\n      0x11\n        /* \"#utility.yul\":7567:7570   */\n      dup4\n        /* \"#utility.yul\":7508:7575   */\n      tag_190\n      jump\t// in\n    tag_292:\n        /* \"#utility.yul\":7501:7575   */\n      swap2\n      pop\n        /* \"#utility.yul\":7584:7677   */\n      tag_293\n        /* \"#utility.yul\":7673:7676   */\n      dup3\n        /* \"#utility.yul\":7584:7677   */\n      tag_194\n      jump\t// in\n    tag_293:\n        /* \"#utility.yul\":7702:7704   */\n      0x20\n        /* \"#utility.yul\":7697:7700   */\n      dup3\n        /* \"#utility.yul\":7693:7705   */\n      add\n        /* \"#utility.yul\":7686:7705   */\n      swap1\n      pop\n        /* \"#utility.yul\":7345:7711   */\n      swap2\n      swap1\n      pop\n      jump\t// out\n        /* \"#utility.yul\":7717:8136   */\n    tag_113:\n        /* \"#utility.yul\":7883:7887   */\n      0x00\n        /* \"#utility.yul\":7921:7923   */\n      0x20\n        /* \"#utility.yul\":7910:7919   */\n      dup3\n        /* \"#utility.yul\":7906:7924   */\n      add\n        /* \"#utility.yul\":7898:7924   */\n      swap1\n      pop\n        /* \"#utility.yul\":7970:7979   */\n      dup2\n        /* \"#utility.yul\":7964:7968   */\n      dup2\n        /* \"#utility.yul\":7960:7980   */\n      sub\n        /* \"#utility.yul\":7956:7957   */\n      0x00\n        /* \"#utility.yul\":7945:7954   */\n      dup4\n        /* \"#utility.yul\":7941:7958   */\n      add\n        /* \"#utility.yul\":7934:7981   */\n      mstore\n        /* \"#utility.yul\":7998:8129   */\n      tag_295\n        /* \"#utility.yul\":8124:8128   */\n      dup2\n        /* \"#utility.yul\":7998:8129   */\n      tag_195\n      jump\t// in\n    tag_295:\n        /* \"#utility.yul\":7990:8129   */\n      swap1\n      pop\n        /* \"#utility.yul\":7717:8136   */\n      swap2\n      swap1\n      pop\n      jump\t// out\n        /* \"#utility.yul\":8142:8474   */\n    tag_115:\n        /* \"#utility.yul\":8263:8267   */\n      0x00\n        /* \"#utility.yul\":8301:8303   */\n      0x40\n        /* \"#utility.yul\":8290:8299   */\n      dup3\n        /* \"#utility.yul\":8286:8304   */\n      add\n        /* \"#utility.yul\":8278:8304   */\n      swap1\n      pop\n        /* \"#utility.yul\":8314:8385   */\n      tag_297\n        /* \"#utility.yul\":8382:8383   */\n      0x00\n        /* \"#utility.yul\":8371:8380   */\n      dup4\n        /* \"#utility.yul\":8367:8384   */\n      add\n        /* \"#utility.yul\":8358:8364   */\n      dup6\n        /* \"#utility.yul\":8314:8385   */\n      tag_184\n      jump\t// in\n    tag_297:\n        /* \"#utility.yul\":8395:8467   */\n      tag_298\n        /* \"#utility.yul\":8463:8465   */\n      0x20\n        /* \"#utility.yul\":8452:8461   */\n      dup4\n        /* \"#utility.yul\":8448:8466   */\n      add\n        /* \"#utility.yul\":8439:8445   */\n      dup5\n        /* \"#utility.yul\":8395:8467   */\n      tag_183\n      jump\t// in\n    tag_298:\n        /* \"#utility.yul\":8142:8474   */\n      swap4\n      swap3\n      pop\n      pop\n      pop\n      jump\t// out\n        /* \"#utility.yul\":8480:8570   */\n    tag_196:\n        /* \"#utility.yul\":8514:8521   */\n      0x00\n        /* \"#utility.yul\":8557:8562   */\n      dup2\n        /* \"#utility.yul\":8550:8563   */\n      iszero\n        /* \"#utility.yul\":8543:8564   */\n      iszero\n        /* \"#utility.yul\":8532:8564   */\n      swap1\n      pop\n        /* \"#utility.yul\":8480:8570   */\n      swap2\n      swap1\n      pop\n      jump\t// out\n        /* \"#utility.yul\":8576:8692   */\n    tag_197:\n        /* \"#utility.yul\":8646:8667   */\n      tag_301\n        /* \"#utility.yul\":8661:8666   */\n      dup2\n        /* \"#utility.yul\":8646:8667   */\n      tag_196\n      jump\t// in\n    tag_301:\n        /* \"#utility.yul\":8639:8644   */\n      dup2\n        /* \"#utility.yul\":8636:8668   */\n      eq\n        /* \"#utility.yul\":8626:8686   */\n      tag_302\n      jumpi\n        /* \"#utility.yul\":8682:8683   */\n      0x00\n        /* \"#utility.yul\":8679:8680   */\n      dup1\n        /* \"#utility.yul\":8672:8684   */\n      revert\n        /* \"#utility.yul\":8626:8686   */\n    tag_302:\n        /* \"#utility.yul\":8576:8692   */\n      pop\n      jump\t// out\n        /* \"#utility.yul\":8698:8835   */\n    tag_198:\n        /* \"#utility.yul\":8752:8757   */\n      0x00\n        /* \"#utility.yul\":8783:8789   */\n      dup2\n        /* \"#utility.yul\":8777:8790   */\n      mload\n        /* \"#utility.yul\":8768:8790   */\n      swap1\n      pop\n        /* \"#utility.yul\":8799:8829   */\n      tag_304\n        /* \"#utility.yul\":8823:8828   */\n      dup2\n        /* \"#utility.yul\":8799:8829   */\n      tag_197\n      jump\t// in\n    tag_304:\n        /* \"#utility.yul\":8698:8835   */\n      swap3\n      swap2\n      pop\n      pop\n      jump\t// out\n        /* \"#utility.yul\":8841:9186   */\n    tag_119:\n        /* \"#utility.yul\":8908:8914   */\n      0x00\n        /* \"#utility.yul\":8957:8959   */\n      0x20\n        /* \"#utility.yul\":8945:8954   */\n      dup3\n        /* \"#utility.yul\":8936:8943   */\n      dup5\n        /* \"#utility.yul\":8932:8955   */\n      sub\n        /* \"#utility.yul\":8928:8960   */\n      slt\n        /* \"#utility.yul\":8925:9044   */\n      iszero\n      tag_306\n      jumpi\n        /* \"#utility.yul\":8963:9042   */\n      tag_307\n      tag_171\n      jump\t// in\n    tag_307:\n        /* \"#utility.yul\":8925:9044   */\n    tag_306:\n        /* \"#utility.yul\":9083:9084   */\n      0x00\n        /* \"#utility.yul\":9108:9169   */\n      tag_308\n        /* \"#utility.yul\":9161:9168   */\n      dup5\n        /* \"#utility.yul\":9152:9158   */\n      dup3\n        /* \"#utility.yul\":9141:9150   */\n      dup6\n        /* \"#utility.yul\":9137:9159   */\n      add\n        /* \"#utility.yul\":9108:9169   */\n      tag_198\n      jump\t// in\n    tag_308:\n        /* \"#utility.yul\":9098:9169   */\n      swap2\n      pop\n        /* \"#utility.yul\":9054:9179   */\n      pop\n        /* \"#utility.yul\":8841:9186   */\n      swap3\n      swap2\n      pop\n      pop\n      jump\t// out\n        /* \"#utility.yul\":9192:9358   */\n    tag_199:\n        /* \"#utility.yul\":9332:9350   */\n      0x4174206c65617374203120746f6b656e00000000000000000000000000000000\n        /* \"#utility.yul\":9328:9329   */\n      0x00\n        /* \"#utility.yul\":9320:9326   */\n      dup3\n        /* \"#utility.yul\":9316:9330   */\n      add\n        /* \"#utility.yul\":9309:9351   */\n      mstore\n        /* \"#utility.yul\":9192:9358   */\n      pop\n      jump\t// out\n        /* \"#utility.yul\":9364:9730   */\n    tag_200:\n        /* \"#utility.yul\":9506:9509   */\n      0x00\n        /* \"#utility.yul\":9527:9594   */\n      tag_311\n        /* \"#utility.yul\":9591:9593   */\n      0x10\n        /* \"#utility.yul\":9586:9589   */\n      dup4\n        /* \"#utility.yul\":9527:9594   */\n      tag_190\n      jump\t// in\n    tag_311:\n        /* \"#utility.yul\":9520:9594   */\n      swap2\n      pop\n        /* \"#utility.yul\":9603:9696   */\n      tag_312\n        /* \"#utility.yul\":9692:9695   */\n      dup3\n        /* \"#utility.yul\":9603:9696   */\n      tag_199\n      jump\t// in\n    tag_312:\n        /* \"#utility.yul\":9721:9723   */\n      0x20\n        /* \"#utility.yul\":9716:9719   */\n      dup3\n        /* \"#utility.yul\":9712:9724   */\n      add\n        /* \"#utility.yul\":9705:9724   */\n      swap1\n      pop\n        /* \"#utility.yul\":9364:9730   */\n      swap2\n      swap1\n      pop\n      jump\t// out\n        /* \"#utility.yul\":9736:10155   */\n    tag_136:\n        /* \"#utility.yul\":9902:9906   */\n      0x00\n        /* \"#utility.yul\":9940:9942   */\n      0x20\n        /* \"#utility.yul\":9929:9938   */\n      dup3\n        /* \"#utility.yul\":9925:9943   */\n      add\n        /* \"#utility.yul\":9917:9943   */\n      swap1\n      pop\n        /* \"#utility.yul\":9989:9998   */\n      dup2\n        /* \"#utility.yul\":9983:9987   */\n      dup2\n        /* \"#utility.yul\":9979:9999   */\n      sub\n        /* \"#utility.yul\":9975:9976   */\n      0x00\n        /* \"#utility.yul\":9964:9973   */\n      dup4\n        /* \"#utility.yul\":9960:9977   */\n      add\n        /* \"#utility.yul\":9953:10000   */\n      mstore\n        /* \"#utility.yul\":10017:10148   */\n      tag_314\n        /* \"#utility.yul\":10143:10147   */\n      dup2\n        /* \"#utility.yul\":10017:10148   */\n      tag_200\n      jump\t// in\n    tag_314:\n        /* \"#utility.yul\":10009:10148   */\n      swap1\n      pop\n        /* \"#utility.yul\":9736:10155   */\n      swap2\n      swap1\n      pop\n      jump\t// out\n        /* \"#utility.yul\":10161:10341   */\n    tag_201:\n        /* \"#utility.yul\":10209:10286   */\n      0x4e487b7100000000000000000000000000000000000000000000000000000000\n        /* \"#utility.yul\":10206:10207   */\n      0x00\n        /* \"#utility.yul\":10199:10287   */\n      mstore\n        /* \"#utility.yul\":10306:10310   */\n      0x11\n        /* \"#utility.yul\":10303:10304   */\n      0x04\n        /* \"#utility.yul\":10296:10311   */\n      mstore\n        /* \"#utility.yul\":10330:10334   */\n      0x24\n        /* \"#utility.yul\":10327:10328   */\n      0x00\n        /* \"#utility.yul\":10320:10335   */\n      revert\n        /* \"#utility.yul\":10347:10757   */\n    tag_138:\n        /* \"#utility.yul\":10387:10394   */\n      0x00\n        /* \"#utility.yul\":10410:10430   */\n      tag_317\n        /* \"#utility.yul\":10428:10429   */\n      dup3\n        /* \"#utility.yul\":10410:10430   */\n      tag_180\n      jump\t// in\n    tag_317:\n        /* \"#utility.yul\":10405:10430   */\n      swap2\n      pop\n        /* \"#utility.yul\":10444:10464   */\n      tag_318\n        /* \"#utility.yul\":10462:10463   */\n      dup4\n        /* \"#utility.yul\":10444:10464   */\n      tag_180\n      jump\t// in\n    tag_318:\n        /* \"#utility.yul\":10439:10464   */\n      swap3\n      pop\n        /* \"#utility.yul\":10499:10500   */\n      dup3\n        /* \"#utility.yul\":10496:10497   */\n      dup3\n        /* \"#utility.yul\":10492:10501   */\n      mul\n        /* \"#utility.yul\":10521:10551   */\n      tag_319\n        /* \"#utility.yul\":10539:10550   */\n      dup2\n        /* \"#utility.yul\":10521:10551   */\n      tag_180\n      jump\t// in\n    tag_319:\n        /* \"#utility.yul\":10510:10551   */\n      swap2\n      pop\n        /* \"#utility.yul\":10700:10701   */\n      dup3\n        /* \"#utility.yul\":10691:10698   */\n      dup3\n        /* \"#utility.yul\":10687:10702   */\n      div\n        /* \"#utility.yul\":10684:10685   */\n      dup5\n        /* \"#utility.yul\":10681:10703   */\n      eq\n        /* \"#utility.yul\":10661:10662   */\n      dup4\n        /* \"#utility.yul\":10654:10663   */\n      iszero\n        /* \"#utility.yul\":10634:10717   */\n      or\n        /* \"#utility.yul\":10611:10750   */\n      tag_320\n      jumpi\n        /* \"#utility.yul\":10730:10748   */\n      tag_321\n      tag_201\n      jump\t// in\n    tag_321:\n        /* \"#utility.yul\":10611:10750   */\n    tag_320:\n        /* \"#utility.yul\":10395:10757   */\n      pop\n        /* \"#utility.yul\":10347:10757   */\n      swap3\n      swap2\n      pop\n      pop\n      jump\t// out\n        /* \"#utility.yul\":10763:10943   */\n    tag_202:\n        /* \"#utility.yul\":10811:10888   */\n      0x4e487b7100000000000000000000000000000000000000000000000000000000\n        /* \"#utility.yul\":10808:10809   */\n      0x00\n        /* \"#utility.yul\":10801:10889   */\n      mstore\n        /* \"#utility.yul\":10908:10912   */\n      0x12\n        /* \"#utility.yul\":10905:10906   */\n      0x04\n        /* \"#utility.yul\":10898:10913   */\n      mstore\n        /* \"#utility.yul\":10932:10936   */\n      0x24\n        /* \"#utility.yul\":10929:10930   */\n      0x00\n        /* \"#utility.yul\":10922:10937   */\n      revert\n        /* \"#utility.yul\":10949:11134   */\n    tag_140:\n        /* \"#utility.yul\":10989:10990   */\n      0x00\n        /* \"#utility.yul\":11006:11026   */\n      tag_324\n        /* \"#utility.yul\":11024:11025   */\n      dup3\n        /* \"#utility.yul\":11006:11026   */\n      tag_180\n      jump\t// in\n    tag_324:\n        /* \"#utility.yul\":11001:11026   */\n      swap2\n      pop\n        /* \"#utility.yul\":11040:11060   */\n      tag_325\n        /* \"#utility.yul\":11058:11059   */\n      dup4\n        /* \"#utility.yul\":11040:11060   */\n      tag_180\n      jump\t// in\n    tag_325:\n        /* \"#utility.yul\":11035:11060   */\n      swap3\n      pop\n        /* \"#utility.yul\":11079:11080   */\n      dup3\n        /* \"#utility.yul\":11069:11104   */\n      tag_326\n      jumpi\n        /* \"#utility.yul\":11084:11102   */\n      tag_327\n      tag_202\n      jump\t// in\n    tag_327:\n        /* \"#utility.yul\":11069:11104   */\n    tag_326:\n        /* \"#utility.yul\":11126:11127   */\n      dup3\n        /* \"#utility.yul\":11123:11124   */\n      dup3\n        /* \"#utility.yul\":11119:11128   */\n      div\n        /* \"#utility.yul\":11114:11128   */\n      swap1\n      pop\n        /* \"#utility.yul\":10949:11134   */\n      swap3\n      swap2\n      pop\n      pop\n      jump\t// out\n        /* \"#utility.yul\":11140:11306   */\n    tag_203:\n        /* \"#utility.yul\":11280:11298   */\n      0x53616c65206e6f74207374617274656400000000000000000000000000000000\n        /* \"#utility.yul\":11276:11277   */\n      0x00\n        /* \"#utility.yul\":11268:11274   */\n      dup3\n        /* \"#utility.yul\":11264:11278   */\n      add\n        /* \"#utility.yul\":11257:11299   */\n      mstore\n        /* \"#utility.yul\":11140:11306   */\n      pop\n      jump\t// out\n        /* \"#utility.yul\":11312:11678   */\n    tag_204:\n        /* \"#utility.yul\":11454:11457   */\n      0x00\n        /* \"#utility.yul\":11475:11542   */\n      tag_330\n        /* \"#utility.yul\":11539:11541   */\n      0x10\n        /* \"#utility.yul\":11534:11537   */\n      dup4\n        /* \"#utility.yul\":11475:11542   */\n      tag_190\n      jump\t// in\n    tag_330:\n        /* \"#utility.yul\":11468:11542   */\n      swap2\n      pop\n        /* \"#utility.yul\":11551:11644   */\n      tag_331\n        /* \"#utility.yul\":11640:11643   */\n      dup3\n        /* \"#utility.yul\":11551:11644   */\n      tag_203\n      jump\t// in\n    tag_331:\n        /* \"#utility.yul\":11669:11671   */\n      0x20\n        /* \"#utility.yul\":11664:11667   */\n      dup3\n        /* \"#utility.yul\":11660:11672   */\n      add\n        /* \"#utility.yul\":11653:11672   */\n      swap1\n      pop\n        /* \"#utility.yul\":11312:11678   */\n      swap2\n      swap1\n      pop\n      jump\t// out\n        /* \"#utility.yul\":11684:12103   */\n    tag_143:\n        /* \"#utility.yul\":11850:11854   */\n      0x00\n        /* \"#utility.yul\":11888:11890   */\n      0x20\n        /* \"#utility.yul\":11877:11886   */\n      dup3\n        /* \"#utility.yul\":11873:11891   */\n      add\n        /* \"#utility.yul\":11865:11891   */\n      swap1\n      pop\n        /* \"#utility.yul\":11937:11946   */\n      dup2\n        /* \"#utility.yul\":11931:11935   */\n      dup2\n        /* \"#utility.yul\":11927:11947   */\n      sub\n        /* \"#utility.yul\":11923:11924   */\n      0x00\n        /* \"#utility.yul\":11912:11921   */\n      dup4\n        /* \"#utility.yul\":11908:11925   */\n      add\n        /* \"#utility.yul\":11901:11948   */\n      mstore\n        /* \"#utility.yul\":11965:12096   */\n      tag_333\n        /* \"#utility.yul\":12091:12095   */\n      dup2\n        /* \"#utility.yul\":11965:12096   */\n      tag_204\n      jump\t// in\n    tag_333:\n        /* \"#utility.yul\":11957:12096   */\n      swap1\n      pop\n        /* \"#utility.yul\":11684:12103   */\n      swap2\n      swap1\n      pop\n      jump\t// out\n        /* \"#utility.yul\":12109:12278   */\n    tag_205:\n        /* \"#utility.yul\":12249:12270   */\n      0x53616c6520686173206265656e20656e64656400000000000000000000000000\n        /* \"#utility.yul\":12245:12246   */\n      0x00\n        /* \"#utility.yul\":12237:12243   */\n      dup3\n        /* \"#utility.yul\":12233:12247   */\n      add\n        /* \"#utility.yul\":12226:12271   */\n      mstore\n        /* \"#utility.yul\":12109:12278   */\n      pop\n      jump\t// out\n        /* \"#utility.yul\":12284:12650   */\n    tag_206:\n        /* \"#utility.yul\":12426:12429   */\n      0x00\n        /* \"#utility.yul\":12447:12514   */\n      tag_336\n        /* \"#utility.yul\":12511:12513   */\n      0x13\n        /* \"#utility.yul\":12506:12509   */\n      dup4\n        /* \"#utility.yul\":12447:12514   */\n      tag_190\n      jump\t// in\n    tag_336:\n        /* \"#utility.yul\":12440:12514   */\n      swap2\n      pop\n        /* \"#utility.yul\":12523:12616   */\n      tag_337\n        /* \"#utility.yul\":12612:12615   */\n      dup3\n        /* \"#utility.yul\":12523:12616   */\n      tag_205\n      jump\t// in\n    tag_337:\n        /* \"#utility.yul\":12641:12643   */\n      0x20\n        /* \"#utility.yul\":12636:12639   */\n      dup3\n        /* \"#utility.yul\":12632:12644   */\n      add\n        /* \"#utility.yul\":12625:12644   */\n      swap1\n      pop\n        /* \"#utility.yul\":12284:12650   */\n      swap2\n      swap1\n      pop\n      jump\t// out\n        /* \"#utility.yul\":12656:13075   */\n    tag_146:\n        /* \"#utility.yul\":12822:12826   */\n      0x00\n        /* \"#utility.yul\":12860:12862   */\n      0x20\n        /* \"#utility.yul\":12849:12858   */\n      dup3\n        /* \"#utility.yul\":12845:12863   */\n      add\n        /* \"#utility.yul\":12837:12863   */\n      swap1\n      pop\n        /* \"#utility.yul\":12909:12918   */\n      dup2\n        /* \"#utility.yul\":12903:12907   */\n      dup2\n        /* \"#utility.yul\":12899:12919   */\n      sub\n        /* \"#utility.yul\":12895:12896   */\n      0x00\n        /* \"#utility.yul\":12884:12893   */\n      dup4\n        /* \"#utility.yul\":12880:12897   */\n      add\n        /* \"#utility.yul\":12873:12920   */\n      mstore\n        /* \"#utility.yul\":12937:13068   */\n      tag_339\n        /* \"#utility.yul\":13063:13067   */\n      dup2\n        /* \"#utility.yul\":12937:13068   */\n      tag_206\n      jump\t// in\n    tag_339:\n        /* \"#utility.yul\":12929:13068   */\n      swap1\n      pop\n        /* \"#utility.yul\":12656:13075   */\n      swap2\n      swap1\n      pop\n      jump\t// out\n        /* \"#utility.yul\":13081:13272   */\n    tag_154:\n        /* \"#utility.yul\":13121:13124   */\n      0x00\n        /* \"#utility.yul\":13140:13160   */\n      tag_341\n        /* \"#utility.yul\":13158:13159   */\n      dup3\n        /* \"#utility.yul\":13140:13160   */\n      tag_180\n      jump\t// in\n    tag_341:\n        /* \"#utility.yul\":13135:13160   */\n      swap2\n      pop\n        /* \"#utility.yul\":13174:13194   */\n      tag_342\n        /* \"#utility.yul\":13192:13193   */\n      dup4\n        /* \"#utility.yul\":13174:13194   */\n      tag_180\n      jump\t// in\n    tag_342:\n        /* \"#utility.yul\":13169:13194   */\n      swap3\n      pop\n        /* \"#utility.yul\":13217:13218   */\n      dup3\n        /* \"#utility.yul\":13214:13215   */\n      dup3\n        /* \"#utility.yul\":13210:13219   */\n      add\n        /* \"#utility.yul\":13203:13219   */\n      swap1\n      pop\n        /* \"#utility.yul\":13238:13241   */\n      dup1\n        /* \"#utility.yul\":13235:13236   */\n      dup3\n        /* \"#utility.yul\":13232:13242   */\n      gt\n        /* \"#utility.yul\":13229:13265   */\n      iszero\n      tag_343\n      jumpi\n        /* \"#utility.yul\":13245:13263   */\n      tag_344\n      tag_201\n      jump\t// in\n    tag_344:\n        /* \"#utility.yul\":13229:13265   */\n    tag_343:\n        /* \"#utility.yul\":13081:13272   */\n      swap3\n      swap2\n      pop\n      pop\n      jump\t// out\n\n    auxdata: 0xa2646970667358221220ec9820ad558ad8a67c9cb8627f4aba52a49d15646fa8f39ea8062444b334500e64736f6c634300081a0033\n}\n",
				"bytecode": {
					"linkReferences": {},
					"object": "608060405234801561000f575f80fd5b5060405161155538038061155583398181016040528101906100319190610127565b845f806101000a81548173ffffffffffffffffffffffffffffffffffffffff021916908373ffffffffffffffffffffffffffffffffffffffff16021790555083600181905550826002819055508160048190555080600581905550505050505061019e565b5f80fd5b5f73ffffffffffffffffffffffffffffffffffffffff82169050919050565b5f6100c38261009a565b9050919050565b6100d3816100b9565b81146100dd575f80fd5b50565b5f815190506100ee816100ca565b92915050565b5f819050919050565b610106816100f4565b8114610110575f80fd5b50565b5f81519050610121816100fd565b92915050565b5f805f805f60a086880312156101405761013f610096565b5b5f61014d888289016100e0565b955050602061015e88828901610113565b945050604061016f88828901610113565b935050606061018088828901610113565b925050608061019188828901610113565b9150509295509295909350565b6113aa806101ab5f395ff3fe608060405260043610610108575f3560e01c8063846bd39a11610094578063bcf387cd11610063578063bcf387cd14610316578063d7d8804314610340578063de74aee61461036a578063f7d9757714610394578063fc0c546a146103bc57610108565b8063846bd39a146102705780638da5cb5b1461029857806394d77363146102c25780639e1a4d19146102ec57610108565b80632d296bf1116100db5780632d296bf1146101ac5780634b94f50e146101c8578063518ab2a8146101f25780636469fa4e1461021c57806382b2e2571461024657610108565b806301e336671461010c57806313af403514610134578063144fa6d71461015c5780631b9a91a414610184575b5f80fd5b348015610117575f80fd5b50610132600480360381019061012d9190610db2565b6103e6565b005b34801561013f575f80fd5b5061015a60048036038101906101559190610e02565b6105b5565b005b348015610167575f80fd5b50610182600480360381019061017d9190610e02565b610687565b005b34801561018f575f80fd5b506101aa60048036038101906101a59190610e2d565b610758565b005b6101c660048036038101906101c19190610e6b565b610877565b005b3480156101d3575f80fd5b506101dc610af8565b6040516101e99190610ea5565b60405180910390f35b3480156101fd575f80fd5b50610206610b26565b6040516102139190610ea5565b60405180910390f35b348015610227575f80fd5b50610230610b2c565b60405161023d9190610ea5565b60405180910390f35b348015610251575f80fd5b5061025a610b32565b6040516102679190610ea5565b60405180910390f35b34801561027b575f80fd5b5061029660048036038101906102919190610ebe565b610b3b565b005b3480156102a3575f80fd5b506102ac610bdc565b6040516102b99190610f0b565b60405180910390f35b3480156102cd575f80fd5b506102d6610c01565b6040516102e39190610ea5565b60405180910390f35b3480156102f7575f80fd5b50610300610c0a565b60405161030d9190610ea5565b60405180910390f35b348015610321575f80fd5b5061032a610c10565b6040516103379190610ea5565b60405180910390f35b34801561034b575f80fd5b50610354610c16565b6040516103619190610ea5565b60405180910390f35b348015610375575f80fd5b5061037e610c1c565b60405161038b9190610ea5565b60405180910390f35b34801561039f575f80fd5b506103ba60048036038101906103b59190610ebe565b610c22565b005b3480156103c7575f80fd5b506103d0610cc3565b6040516103dd9190610f7f565b60405180910390f35b3373ffffffffffffffffffffffffffffffffffffffff1660035f9054906101000a900473ffffffffffffffffffffffffffffffffffffffff1673ffffffffffffffffffffffffffffffffffffffff1614610475576040517f08c379a000000000000000000000000000000000000000000000000000000000815260040161046c90610ff2565b60405180910390fd5b5f8373ffffffffffffffffffffffffffffffffffffffff166370a08231306040518263ffffffff1660e01b81526004016104af9190610f0b565b602060405180830381865afa1580156104ca573d5f803e3d5ffd5b505050506040513d601f19601f820116820180604052508101906104ee9190611024565b905081811015610533576040517f08c379a000000000000000000000000000000000000000000000000000000000815260040161052a90611099565b60405180910390fd5b8373ffffffffffffffffffffffffffffffffffffffff1663a9059cbb84846040518363ffffffff1660e01b815260040161056e9291906110b7565b6020604051808303815f875af115801561058a573d5f803e3d5ffd5b505050506040513d601f19601f820116820180604052508101906105ae9190611113565b5050505050565b3373ffffffffffffffffffffffffffffffffffffffff1660035f9054906101000a900473ffffffffffffffffffffffffffffffffffffffff1673ffffffffffffffffffffffffffffffffffffffff1614610644576040517f08c379a000000000000000000000000000000000000000000000000000000000815260040161063b90610ff2565b60405180910390fd5b8060035f6101000a81548173ffffffffffffffffffffffffffffffffffffffff021916908373ffffffffffffffffffffffffffffffffffffffff16021790555050565b3373ffffffffffffffffffffffffffffffffffffffff1660035f9054906101000a900473ffffffffffffffffffffffffffffffffffffffff1673ffffffffffffffffffffffffffffffffffffffff1614610716576040517f08c379a000000000000000000000000000000000000000000000000000000000815260040161070d90610ff2565b60405180910390fd5b805f806101000a81548173ffffffffffffffffffffffffffffffffffffffff021916908373ffffffffffffffffffffffffffffffffffffffff16021790555050565b3373ffffffffffffffffffffffffffffffffffffffff1660035f9054906101000a900473ffffffffffffffffffffffffffffffffffffffff1673ffffffffffffffffffffffffffffffffffffffff16146107e7576040517f08c379a00000000000000000000000000000000000000000000000000000000081526004016107de90610ff2565b60405180910390fd5b5f4790508181101561082e576040517f08c379a000000000000000000000000000000000000000000000000000000000815260040161082590611099565b60405180910390fd5b8273ffffffffffffffffffffffffffffffffffffffff166108fc8390811502906040515f60405180830381858888f19350505050158015610871573d5f803e3d5ffd5b50505050565b5f81116108b9576040517f08c379a00000000000000000000000000000000000000000000000000000000081526004016108b090611188565b60405180910390fd5b5f600254600154836108cb91906111d3565b6108d59190611241565b905060045442101561091c576040517f08c379a0000000000000000000000000000000000000000000000000000000008152600401610913906112bb565b60405180910390fd5b600554421115610961576040517f08c379a000000000000000000000000000000000000000000000000000000000815260040161095890611323565b60405180910390fd5b803410156109a4576040517f08c379a000000000000000000000000000000000000000000000000000000000815260040161099b90611099565b60405180910390fd5b5f8054906101000a900473ffffffffffffffffffffffffffffffffffffffff1673ffffffffffffffffffffffffffffffffffffffff1663a9059cbb33846040518363ffffffff1660e01b81526004016109fe9291906110b7565b6020604051808303815f875af1158015610a1a573d5f803e3d5ffd5b505050506040513d601f19601f82011682018060405250810190610a3e9190611113565b508160065f828254610a509190611341565b925050819055505f8054906101000a900473ffffffffffffffffffffffffffffffffffffffff1673ffffffffffffffffffffffffffffffffffffffff166370a08231336040518263ffffffff1660e01b8152600401610aaf9190610f0b565b602060405180830381865afa158015610aca573d5f803e3d5ffd5b505050506040513d601f19601f82011682018060405250810190610aee9190611024565b6007819055505050565b5f80600254670de0b6b3a7640000600154610b1391906111d3565b610b1d9190611241565b90508091505090565b60065481565b60015481565b5f600754905090565b3373ffffffffffffffffffffffffffffffffffffffff1660035f9054906101000a900473ffffffffffffffffffffffffffffffffffffffff1673ffffffffffffffffffffffffffffffffffffffff1614610bca576040517f08c379a0000000000000000000000000000000000000000000000000000000008152600401610bc190610ff2565b60405180910390fd5b81600481905550806005819055505050565b60035f9054906101000a900473ffffffffffffffffffffffffffffffffffffffff1681565b5f600654905090565b60075481565b60045481565b60055481565b60025481565b3373ffffffffffffffffffffffffffffffffffffffff1660035f9054906101000a900473ffffffffffffffffffffffffffffffffffffffff1673ffffffffffffffffffffffffffffffffffffffff1614610cb1576040517f08c379a0000000000000000000000000000000000000000000000000000000008152600401610ca890610ff2565b60405180910390fd5b81600181905550806002819055505050565b5f8054906101000a900473ffffffffffffffffffffffffffffffffffffffff1681565b5f80fd5b5f73ffffffffffffffffffffffffffffffffffffffff82169050919050565b5f610d1382610cea565b9050919050565b5f610d2482610d09565b9050919050565b610d3481610d1a565b8114610d3e575f80fd5b50565b5f81359050610d4f81610d2b565b92915050565b610d5e81610d09565b8114610d68575f80fd5b50565b5f81359050610d7981610d55565b92915050565b5f819050919050565b610d9181610d7f565b8114610d9b575f80fd5b50565b5f81359050610dac81610d88565b92915050565b5f805f60608486031215610dc957610dc8610ce6565b5b5f610dd686828701610d41565b9350506020610de786828701610d6b565b9250506040610df886828701610d9e565b9150509250925092565b5f60208284031215610e1757610e16610ce6565b5b5f610e2484828501610d6b565b91505092915050565b5f8060408385031215610e4357610e42610ce6565b5b5f610e5085828601610d6b565b9250506020610e6185828601610d9e565b9150509250929050565b5f60208284031215610e8057610e7f610ce6565b5b5f610e8d84828501610d9e565b91505092915050565b610e9f81610d7f565b82525050565b5f602082019050610eb85f830184610e96565b92915050565b5f8060408385031215610ed457610ed3610ce6565b5b5f610ee185828601610d9e565b9250506020610ef285828601610d9e565b9150509250929050565b610f0581610d09565b82525050565b5f602082019050610f1e5f830184610efc565b92915050565b5f819050919050565b5f610f47610f42610f3d84610cea565b610f24565b610cea565b9050919050565b5f610f5882610f2d565b9050919050565b5f610f6982610f4e565b9050919050565b610f7981610f5f565b82525050565b5f602082019050610f925f830184610f70565b92915050565b5f82825260208201905092915050565b7f4e6f74206f776e657200000000000000000000000000000000000000000000005f82015250565b5f610fdc600983610f98565b9150610fe782610fa8565b602082019050919050565b5f6020820190508181035f83015261100981610fd0565b9050919050565b5f8151905061101e81610d88565b92915050565b5f6020828403121561103957611038610ce6565b5b5f61104684828501611010565b91505092915050565b7f496e73756666696369656e742066756e640000000000000000000000000000005f82015250565b5f611083601183610f98565b915061108e8261104f565b602082019050919050565b5f6020820190508181035f8301526110b081611077565b9050919050565b5f6040820190506110ca5f830185610efc565b6110d76020830184610e96565b9392505050565b5f8115159050919050565b6110f2816110de565b81146110fc575f80fd5b50565b5f8151905061110d816110e9565b92915050565b5f6020828403121561112857611127610ce6565b5b5f611135848285016110ff565b91505092915050565b7f4174206c65617374203120746f6b656e000000000000000000000000000000005f82015250565b5f611172601083610f98565b915061117d8261113e565b602082019050919050565b5f6020820190508181035f83015261119f81611166565b9050919050565b7f4e487b71000000000000000000000000000000000000000000000000000000005f52601160045260245ffd5b5f6111dd82610d7f565b91506111e883610d7f565b92508282026111f681610d7f565b9150828204841483151761120d5761120c6111a6565b5b5092915050565b7f4e487b71000000000000000000000000000000000000000000000000000000005f52601260045260245ffd5b5f61124b82610d7f565b915061125683610d7f565b92508261126657611265611214565b5b828204905092915050565b7f53616c65206e6f742073746172746564000000000000000000000000000000005f82015250565b5f6112a5601083610f98565b91506112b082611271565b602082019050919050565b5f6020820190508181035f8301526112d281611299565b9050919050565b7f53616c6520686173206265656e20656e646564000000000000000000000000005f82015250565b5f61130d601383610f98565b9150611318826112d9565b602082019050919050565b5f6020820190508181035f83015261133a81611301565b9050919050565b5f61134b82610d7f565b915061135683610d7f565b925082820190508082111561136e5761136d6111a6565b5b9291505056fea2646970667358221220ec9820ad558ad8a67c9cb8627f4aba52a49d15646fa8f39ea8062444b334500e64736f6c634300081a0033",
					"opcodes": "PUSH1 0x80 PUSH1 0x40 MSTORE CALLVALUE DUP1 ISZERO PUSH2 0xF JUMPI PUSH0 DUP1 REVERT JUMPDEST POP PUSH1 0x40 MLOAD PUSH2 0x1555 CODESIZE SUB DUP1 PUSH2 0x1555 DUP4 CODECOPY DUP2 DUP2 ADD PUSH1 0x40 MSTORE DUP2 ADD SWAP1 PUSH2 0x31 SWAP2 SWAP1 PUSH2 0x127 JUMP JUMPDEST DUP5 PUSH0 DUP1 PUSH2 0x100 EXP DUP2 SLOAD DUP2 PUSH20 0xFFFFFFFFFFFFFFFFFFFFFFFFFFFFFFFFFFFFFFFF MUL NOT AND SWAP1 DUP4 PUSH20 0xFFFFFFFFFFFFFFFFFFFFFFFFFFFFFFFFFFFFFFFF AND MUL OR SWAP1 SSTORE POP DUP4 PUSH1 0x1 DUP2 SWAP1 SSTORE POP DUP3 PUSH1 0x2 DUP2 SWAP1 SSTORE POP DUP2 PUSH1 0x4 DUP2 SWAP1 SSTORE POP DUP1 PUSH1 0x5 DUP2 SWAP1 SSTORE POP POP POP POP POP POP PUSH2 0x19E JUMP JUMPDEST PUSH0 DUP1 REVERT JUMPDEST PUSH0 PUSH20 0xFFFFFFFFFFFFFFFFFFFFFFFFFFFFFFFFFFFFFFFF DUP3 AND SWAP1 POP SWAP2 SWAP1 POP JUMP JUMPDEST PUSH0 PUSH2 0xC3 DUP3 PUSH2 0x9A JUMP JUMPDEST SWAP1 POP SWAP2 SWAP1 POP JUMP JUMPDEST PUSH2 0xD3 DUP2 PUSH2 0xB9 JUMP JUMPDEST DUP2 EQ PUSH2 0xDD JUMPI PUSH0 DUP1 REVERT JUMPDEST POP JUMP JUMPDEST PUSH0 DUP2 MLOAD SWAP1 POP PUSH2 0xEE DUP2 PUSH2 0xCA JUMP JUMPDEST SWAP3 SWAP2 POP POP JUMP JUMPDEST PUSH0 DUP2 SWAP1 POP SWAP2 SWAP1 POP JUMP JUMPDEST PUSH2 0x106 DUP2 PUSH2 0xF4 JUMP JUMPDEST DUP2 EQ PUSH2 0x110 JUMPI PUSH0 DUP1 REVERT JUMPDEST POP JUMP JUMPDEST PUSH0 DUP2 MLOAD SWAP1 POP PUSH2 0x121 DUP2 PUSH2 0xFD JUMP JUMPDEST SWAP3 SWAP2 POP POP JUMP JUMPDEST PUSH0 DUP1 PUSH0 DUP1 PUSH0 PUSH1 0xA0 DUP7 DUP9 SUB SLT ISZERO PUSH2 0x140 JUMPI PUSH2 0x13F PUSH2 0x96 JUMP JUMPDEST JUMPDEST PUSH0 PUSH2 0x14D DUP9 DUP3 DUP10 ADD PUSH2 0xE0 JUMP JUMPDEST SWAP6 POP POP PUSH1 0x20 PUSH2 0x15E DUP9 DUP3 DUP10 ADD PUSH2 0x113 JUMP JUMPDEST SWAP5 POP POP PUSH1 0x40 PUSH2 0x16F DUP9 DUP3 DUP10 ADD PUSH2 0x113 JUMP JUMPDEST SWAP4 POP POP PUSH1 0x60 PUSH2 0x180 DUP9 DUP3 DUP10 ADD PUSH2 0x113 JUMP JUMPDEST SWAP3 POP POP PUSH1 0x80 PUSH2 0x191 DUP9 DUP3 DUP10 ADD PUSH2 0x113 JUMP JUMPDEST SWAP2 POP POP SWAP3 SWAP6 POP SWAP3 SWAP6 SWAP1 SWAP4 POP JUMP JUMPDEST PUSH2 0x13AA DUP1 PUSH2 0x1AB PUSH0 CODECOPY PUSH0 RETURN INVALID PUSH1 0x80 PUSH1 0x40 MSTORE PUSH1 0x4 CALLDATASIZE LT PUSH2 0x108 JUMPI PUSH0 CALLDATALOAD PUSH1 0xE0 SHR DUP1 PUSH4 0x846BD39A GT PUSH2 0x94 JUMPI DUP1 PUSH4 0xBCF387CD GT PUSH2 0x63 JUMPI DUP1 PUSH4 0xBCF387CD EQ PUSH2 0x316 JUMPI DUP1 PUSH4 0xD7D88043 EQ PUSH2 0x340 JUMPI DUP1 PUSH4 0xDE74AEE6 EQ PUSH2 0x36A JUMPI DUP1 PUSH4 0xF7D97577 EQ PUSH2 0x394 JUMPI DUP1 PUSH4 0xFC0C546A EQ PUSH2 0x3BC JUMPI PUSH2 0x108 JUMP JUMPDEST DUP1 PUSH4 0x846BD39A EQ PUSH2 0x270 JUMPI DUP1 PUSH4 0x8DA5CB5B EQ PUSH2 0x298 JUMPI DUP1 PUSH4 0x94D77363 EQ PUSH2 0x2C2 JUMPI DUP1 PUSH4 0x9E1A4D19 EQ PUSH2 0x2EC JUMPI PUSH2 0x108 JUMP JUMPDEST DUP1 PUSH4 0x2D296BF1 GT PUSH2 0xDB JUMPI DUP1 PUSH4 0x2D296BF1 EQ PUSH2 0x1AC JUMPI DUP1 PUSH4 0x4B94F50E EQ PUSH2 0x1C8 JUMPI DUP1 PUSH4 0x518AB2A8 EQ PUSH2 0x1F2 JUMPI DUP1 PUSH4 0x6469FA4E EQ PUSH2 0x21C JUMPI DUP1 PUSH4 0x82B2E257 EQ PUSH2 0x246 JUMPI PUSH2 0x108 JUMP JUMPDEST DUP1 PUSH4 0x1E33667 EQ PUSH2 0x10C JUMPI DUP1 PUSH4 0x13AF4035 EQ PUSH2 0x134 JUMPI DUP1 PUSH4 0x144FA6D7 EQ PUSH2 0x15C JUMPI DUP1 PUSH4 0x1B9A91A4 EQ PUSH2 0x184 JUMPI JUMPDEST PUSH0 DUP1 REVERT JUMPDEST CALLVALUE DUP1 ISZERO PUSH2 0x117 JUMPI PUSH0 DUP1 REVERT JUMPDEST POP PUSH2 0x132 PUSH1 0x4 DUP1 CALLDATASIZE SUB DUP2 ADD SWAP1 PUSH2 0x12D SWAP2 SWAP1 PUSH2 0xDB2 JUMP JUMPDEST PUSH2 0x3E6 JUMP JUMPDEST STOP JUMPDEST CALLVALUE DUP1 ISZERO PUSH2 0x13F JUMPI PUSH0 DUP1 REVERT JUMPDEST POP PUSH2 0x15A PUSH1 0x4 DUP1 CALLDATASIZE SUB DUP2 ADD SWAP1 PUSH2 0x155 SWAP2 SWAP1 PUSH2 0xE02 JUMP JUMPDEST PUSH2 0x5B5 JUMP JUMPDEST STOP JUMPDEST CALLVALUE DUP1 ISZERO PUSH2 0x167 JUMPI PUSH0 DUP1 REVERT JUMPDEST POP PUSH2 0x182 PUSH1 0x4 DUP1 CALLDATASIZE SUB DUP2 ADD SWAP1 PUSH2 0x17D SWAP2 SWAP1 PUSH2 0xE02 JUMP JUMPDEST PUSH2 0x687 JUMP JUMPDEST STOP JUMPDEST CALLVALUE DUP1 ISZERO PUSH2 0x18F JUMPI PUSH0 DUP1 REVERT JUMPDEST POP PUSH2 0x1AA PUSH1 0x4 DUP1 CALLDATASIZE SUB DUP2 ADD SWAP1 PUSH2 0x1A5 SWAP2 SWAP1 PUSH2 0xE2D JUMP JUMPDEST PUSH2 0x758 JUMP JUMPDEST STOP JUMPDEST PUSH2 0x1C6 PUSH1 0x4 DUP1 CALLDATASIZE SUB DUP2 ADD SWAP1 PUSH2 0x1C1 SWAP2 SWAP1 PUSH2 0xE6B JUMP JUMPDEST PUSH2 0x877 JUMP JUMPDEST STOP JUMPDEST CALLVALUE DUP1 ISZERO PUSH2 0x1D3 JUMPI PUSH0 DUP1 REVERT JUMPDEST POP PUSH2 0x1DC PUSH2 0xAF8 JUMP JUMPDEST PUSH1 0x40 MLOAD PUSH2 0x1E9 SWAP2 SWAP1 PUSH2 0xEA5 JUMP JUMPDEST PUSH1 0x40 MLOAD DUP1 SWAP2 SUB SWAP1 RETURN JUMPDEST CALLVALUE DUP1 ISZERO PUSH2 0x1FD JUMPI PUSH0 DUP1 REVERT JUMPDEST POP PUSH2 0x206 PUSH2 0xB26 JUMP JUMPDEST PUSH1 0x40 MLOAD PUSH2 0x213 SWAP2 SWAP1 PUSH2 0xEA5 JUMP JUMPDEST PUSH1 0x40 MLOAD DUP1 SWAP2 SUB SWAP1 RETURN JUMPDEST CALLVALUE DUP1 ISZERO PUSH2 0x227 JUMPI PUSH0 DUP1 REVERT JUMPDEST POP PUSH2 0x230 PUSH2 0xB2C JUMP JUMPDEST PUSH1 0x40 MLOAD PUSH2 0x23D SWAP2 SWAP1 PUSH2 0xEA5 JUMP JUMPDEST PUSH1 0x40 MLOAD DUP1 SWAP2 SUB SWAP1 RETURN JUMPDEST CALLVALUE DUP1 ISZERO PUSH2 0x251 JUMPI PUSH0 DUP1 REVERT JUMPDEST POP PUSH2 0x25A PUSH2 0xB32 JUMP JUMPDEST PUSH1 0x40 MLOAD PUSH2 0x267 SWAP2 SWAP1 PUSH2 0xEA5 JUMP JUMPDEST PUSH1 0x40 MLOAD DUP1 SWAP2 SUB SWAP1 RETURN JUMPDEST CALLVALUE DUP1 ISZERO PUSH2 0x27B JUMPI PUSH0 DUP1 REVERT JUMPDEST POP PUSH2 0x296 PUSH1 0x4 DUP1 CALLDATASIZE SUB DUP2 ADD SWAP1 PUSH2 0x291 SWAP2 SWAP1 PUSH2 0xEBE JUMP JUMPDEST PUSH2 0xB3B JUMP JUMPDEST STOP JUMPDEST CALLVALUE DUP1 ISZERO PUSH2 0x2A3 JUMPI PUSH0 DUP1 REVERT JUMPDEST POP PUSH2 0x2AC PUSH2 0xBDC JUMP JUMPDEST PUSH1 0x40 MLOAD PUSH2 0x2B9 SWAP2 SWAP1 PUSH2 0xF0B JUMP JUMPDEST PUSH1 0x40 MLOAD DUP1 SWAP2 SUB SWAP1 RETURN JUMPDEST CALLVALUE DUP1 ISZERO PUSH2 0x2CD JUMPI PUSH0 DUP1 REVERT JUMPDEST POP PUSH2 0x2D6 PUSH2 0xC01 JUMP JUMPDEST PUSH1 0x40 MLOAD PUSH2 0x2E3 SWAP2 SWAP1 PUSH2 0xEA5 JUMP JUMPDEST PUSH1 0x40 MLOAD DUP1 SWAP2 SUB SWAP1 RETURN JUMPDEST CALLVALUE DUP1 ISZERO PUSH2 0x2F7 JUMPI PUSH0 DUP1 REVERT JUMPDEST POP PUSH2 0x300 PUSH2 0xC0A JUMP JUMPDEST PUSH1 0x40 MLOAD PUSH2 0x30D SWAP2 SWAP1 PUSH2 0xEA5 JUMP JUMPDEST PUSH1 0x40 MLOAD DUP1 SWAP2 SUB SWAP1 RETURN JUMPDEST CALLVALUE DUP1 ISZERO PUSH2 0x321 JUMPI PUSH0 DUP1 REVERT JUMPDEST POP PUSH2 0x32A PUSH2 0xC10 JUMP JUMPDEST PUSH1 0x40 MLOAD PUSH2 0x337 SWAP2 SWAP1 PUSH2 0xEA5 JUMP JUMPDEST PUSH1 0x40 MLOAD DUP1 SWAP2 SUB SWAP1 RETURN JUMPDEST CALLVALUE DUP1 ISZERO PUSH2 0x34B JUMPI PUSH0 DUP1 REVERT JUMPDEST POP PUSH2 0x354 PUSH2 0xC16 JUMP JUMPDEST PUSH1 0x40 MLOAD PUSH2 0x361 SWAP2 SWAP1 PUSH2 0xEA5 JUMP JUMPDEST PUSH1 0x40 MLOAD DUP1 SWAP2 SUB SWAP1 RETURN JUMPDEST CALLVALUE DUP1 ISZERO PUSH2 0x375 JUMPI PUSH0 DUP1 REVERT JUMPDEST POP PUSH2 0x37E PUSH2 0xC1C JUMP JUMPDEST PUSH1 0x40 MLOAD PUSH2 0x38B SWAP2 SWAP1 PUSH2 0xEA5 JUMP JUMPDEST PUSH1 0x40 MLOAD DUP1 SWAP2 SUB SWAP1 RETURN JUMPDEST CALLVALUE DUP1 ISZERO PUSH2 0x39F JUMPI PUSH0 DUP1 REVERT JUMPDEST POP PUSH2 0x3BA PUSH1 0x4 DUP1 CALLDATASIZE SUB DUP2 ADD SWAP1 PUSH2 0x3B5 SWAP2 SWAP1 PUSH2 0xEBE JUMP JUMPDEST PUSH2 0xC22 JUMP JUMPDEST STOP JUMPDEST CALLVALUE DUP1 ISZERO PUSH2 0x3C7 JUMPI PUSH0 DUP1 REVERT JUMPDEST POP PUSH2 0x3D0 PUSH2 0xCC3 JUMP JUMPDEST PUSH1 0x40 MLOAD PUSH2 0x3DD SWAP2 SWAP1 PUSH2 0xF7F JUMP JUMPDEST PUSH1 0x40 MLOAD DUP1 SWAP2 SUB SWAP1 RETURN JUMPDEST CALLER PUSH20 0xFFFFFFFFFFFFFFFFFFFFFFFFFFFFFFFFFFFFFFFF AND PUSH1 0x3 PUSH0 SWAP1 SLOAD SWAP1 PUSH2 0x100 EXP SWAP1 DIV PUSH20 0xFFFFFFFFFFFFFFFFFFFFFFFFFFFFFFFFFFFFFFFF AND PUSH20 0xFFFFFFFFFFFFFFFFFFFFFFFFFFFFFFFFFFFFFFFF AND EQ PUSH2 0x475 JUMPI PUSH1 0x40 MLOAD PUSH32 0x8C379A000000000000000000000000000000000000000000000000000000000 DUP2 MSTORE PUSH1 0x4 ADD PUSH2 0x46C SWAP1 PUSH2 0xFF2 JUMP JUMPDEST PUSH1 0x40 MLOAD DUP1 SWAP2 SUB SWAP1 REVERT JUMPDEST PUSH0 DUP4 PUSH20 0xFFFFFFFFFFFFFFFFFFFFFFFFFFFFFFFFFFFFFFFF AND PUSH4 0x70A08231 ADDRESS PUSH1 0x40 MLOAD DUP3 PUSH4 0xFFFFFFFF AND PUSH1 0xE0 SHL DUP2 MSTORE PUSH1 0x4 ADD PUSH2 0x4AF SWAP2 SWAP1 PUSH2 0xF0B JUMP JUMPDEST PUSH1 0x20 PUSH1 0x40 MLOAD DUP1 DUP4 SUB DUP2 DUP7 GAS STATICCALL ISZERO DUP1 ISZERO PUSH2 0x4CA JUMPI RETURNDATASIZE PUSH0 DUP1 RETURNDATACOPY RETURNDATASIZE PUSH0 REVERT JUMPDEST POP POP POP POP PUSH1 0x40 MLOAD RETURNDATASIZE PUSH1 0x1F NOT PUSH1 0x1F DUP3 ADD AND DUP3 ADD DUP1 PUSH1 0x40 MSTORE POP DUP2 ADD SWAP1 PUSH2 0x4EE SWAP2 SWAP1 PUSH2 0x1024 JUMP JUMPDEST SWAP1 POP DUP2 DUP2 LT ISZERO PUSH2 0x533 JUMPI PUSH1 0x40 MLOAD PUSH32 0x8C379A000000000000000000000000000000000000000000000000000000000 DUP2 MSTORE PUSH1 0x4 ADD PUSH2 0x52A SWAP1 PUSH2 0x1099 JUMP JUMPDEST PUSH1 0x40 MLOAD DUP1 SWAP2 SUB SWAP1 REVERT JUMPDEST DUP4 PUSH20 0xFFFFFFFFFFFFFFFFFFFFFFFFFFFFFFFFFFFFFFFF AND PUSH4 0xA9059CBB DUP5 DUP5 PUSH1 0x40 MLOAD DUP4 PUSH4 0xFFFFFFFF AND PUSH1 0xE0 SHL DUP2 MSTORE PUSH1 0x4 ADD PUSH2 0x56E SWAP3 SWAP2 SWAP1 PUSH2 0x10B7 JUMP JUMPDEST PUSH1 0x20 PUSH1 0x40 MLOAD DUP1 DUP4 SUB DUP2 PUSH0 DUP8 GAS CALL ISZERO DUP1 ISZERO PUSH2 0x58A JUMPI RETURNDATASIZE PUSH0 DUP1 RETURNDATACOPY RETURNDATASIZE PUSH0 REVERT JUMPDEST POP POP POP POP PUSH1 0x40 MLOAD RETURNDATASIZE PUSH1 0x1F NOT PUSH1 0x1F DUP3 ADD AND DUP3 ADD DUP1 PUSH1 0x40 MSTORE POP DUP2 ADD SWAP1 PUSH2 0x5AE SWAP2 SWAP1 PUSH2 0x1113 JUMP JUMPDEST POP POP POP POP POP JUMP JUMPDEST CALLER PUSH20 0xFFFFFFFFFFFFFFFFFFFFFFFFFFFFFFFFFFFFFFFF AND PUSH1 0x3 PUSH0 SWAP1 SLOAD SWAP1 PUSH2 0x100 EXP SWAP1 DIV PUSH20 0xFFFFFFFFFFFFFFFFFFFFFFFFFFFFFFFFFFFFFFFF AND PUSH20 0xFFFFFFFFFFFFFFFFFFFFFFFFFFFFFFFFFFFFFFFF AND EQ PUSH2 0x644 JUMPI PUSH1 0x40 MLOAD PUSH32 0x8C379A000000000000000000000000000000000000000000000000000000000 DUP2 MSTORE PUSH1 0x4 ADD PUSH2 0x63B SWAP1 PUSH2 0xFF2 JUMP JUMPDEST PUSH1 0x40 MLOAD DUP1 SWAP2 SUB SWAP1 REVERT JUMPDEST DUP1 PUSH1 0x3 PUSH0 PUSH2 0x100 EXP DUP2 SLOAD DUP2 PUSH20 0xFFFFFFFFFFFFFFFFFFFFFFFFFFFFFFFFFFFFFFFF MUL NOT AND SWAP1 DUP4 PUSH20 0xFFFFFFFFFFFFFFFFFFFFFFFFFFFFFFFFFFFFFFFF AND MUL OR SWAP1 SSTORE POP POP JUMP JUMPDEST CALLER PUSH20 0xFFFFFFFFFFFFFFFFFFFFFFFFFFFFFFFFFFFFFFFF AND PUSH1 0x3 PUSH0 SWAP1 SLOAD SWAP1 PUSH2 0x100 EXP SWAP1 DIV PUSH20 0xFFFFFFFFFFFFFFFFFFFFFFFFFFFFFFFFFFFFFFFF AND PUSH20 0xFFFFFFFFFFFFFFFFFFFFFFFFFFFFFFFFFFFFFFFF AND EQ PUSH2 0x716 JUMPI PUSH1 0x40 MLOAD PUSH32 0x8C379A000000000000000000000000000000000000000000000000000000000 DUP2 MSTORE PUSH1 0x4 ADD PUSH2 0x70D SWAP1 PUSH2 0xFF2 JUMP JUMPDEST PUSH1 0x40 MLOAD DUP1 SWAP2 SUB SWAP1 REVERT JUMPDEST DUP1 PUSH0 DUP1 PUSH2 0x100 EXP DUP2 SLOAD DUP2 PUSH20 0xFFFFFFFFFFFFFFFFFFFFFFFFFFFFFFFFFFFFFFFF MUL NOT AND SWAP1 DUP4 PUSH20 0xFFFFFFFFFFFFFFFFFFFFFFFFFFFFFFFFFFFFFFFF AND MUL OR SWAP1 SSTORE POP POP JUMP JUMPDEST CALLER PUSH20 0xFFFFFFFFFFFFFFFFFFFFFFFFFFFFFFFFFFFFFFFF AND PUSH1 0x3 PUSH0 SWAP1 SLOAD SWAP1 PUSH2 0x100 EXP SWAP1 DIV PUSH20 0xFFFFFFFFFFFFFFFFFFFFFFFFFFFFFFFFFFFFFFFF AND PUSH20 0xFFFFFFFFFFFFFFFFFFFFFFFFFFFFFFFFFFFFFFFF AND EQ PUSH2 0x7E7 JUMPI PUSH1 0x40 MLOAD PUSH32 0x8C379A000000000000000000000000000000000000000000000000000000000 DUP2 MSTORE PUSH1 0x4 ADD PUSH2 0x7DE SWAP1 PUSH2 0xFF2 JUMP JUMPDEST PUSH1 0x40 MLOAD DUP1 SWAP2 SUB SWAP1 REVERT JUMPDEST PUSH0 SELFBALANCE SWAP1 POP DUP2 DUP2 LT ISZERO PUSH2 0x82E JUMPI PUSH1 0x40 MLOAD PUSH32 0x8C379A000000000000000000000000000000000000000000000000000000000 DUP2 MSTORE PUSH1 0x4 ADD PUSH2 0x825 SWAP1 PUSH2 0x1099 JUMP JUMPDEST PUSH1 0x40 MLOAD DUP1 SWAP2 SUB SWAP1 REVERT JUMPDEST DUP3 PUSH20 0xFFFFFFFFFFFFFFFFFFFFFFFFFFFFFFFFFFFFFFFF AND PUSH2 0x8FC DUP4 SWAP1 DUP2 ISZERO MUL SWAP1 PUSH1 0x40 MLOAD PUSH0 PUSH1 0x40 MLOAD DUP1 DUP4 SUB DUP2 DUP6 DUP9 DUP9 CALL SWAP4 POP POP POP POP ISZERO DUP1 ISZERO PUSH2 0x871 JUMPI RETURNDATASIZE PUSH0 DUP1 RETURNDATACOPY RETURNDATASIZE PUSH0 REVERT JUMPDEST POP POP POP POP JUMP JUMPDEST PUSH0 DUP2 GT PUSH2 0x8B9 JUMPI PUSH1 0x40 MLOAD PUSH32 0x8C379A000000000000000000000000000000000000000000000000000000000 DUP2 MSTORE PUSH1 0x4 ADD PUSH2 0x8B0 SWAP1 PUSH2 0x1188 JUMP JUMPDEST PUSH1 0x40 MLOAD DUP1 SWAP2 SUB SWAP1 REVERT JUMPDEST PUSH0 PUSH1 0x2 SLOAD PUSH1 0x1 SLOAD DUP4 PUSH2 0x8CB SWAP2 SWAP1 PUSH2 0x11D3 JUMP JUMPDEST PUSH2 0x8D5 SWAP2 SWAP1 PUSH2 0x1241 JUMP JUMPDEST SWAP1 POP PUSH1 0x4 SLOAD TIMESTAMP LT ISZERO PUSH2 0x91C JUMPI PUSH1 0x40 MLOAD PUSH32 0x8C379A000000000000000000000000000000000000000000000000000000000 DUP2 MSTORE PUSH1 0x4 ADD PUSH2 0x913 SWAP1 PUSH2 0x12BB JUMP JUMPDEST PUSH1 0x40 MLOAD DUP1 SWAP2 SUB SWAP1 REVERT JUMPDEST PUSH1 0x5 SLOAD TIMESTAMP GT ISZERO PUSH2 0x961 JUMPI PUSH1 0x40 MLOAD PUSH32 0x8C379A000000000000000000000000000000000000000000000000000000000 DUP2 MSTORE PUSH1 0x4 ADD PUSH2 0x958 SWAP1 PUSH2 0x1323 JUMP JUMPDEST PUSH1 0x40 MLOAD DUP1 SWAP2 SUB SWAP1 REVERT JUMPDEST DUP1 CALLVALUE LT ISZERO PUSH2 0x9A4 JUMPI PUSH1 0x40 MLOAD PUSH32 0x8C379A000000000000000000000000000000000000000000000000000000000 DUP2 MSTORE PUSH1 0x4 ADD PUSH2 0x99B SWAP1 PUSH2 0x1099 JUMP JUMPDEST PUSH1 0x40 MLOAD DUP1 SWAP2 SUB SWAP1 REVERT JUMPDEST PUSH0 DUP1 SLOAD SWAP1 PUSH2 0x100 EXP SWAP1 DIV PUSH20 0xFFFFFFFFFFFFFFFFFFFFFFFFFFFFFFFFFFFFFFFF AND PUSH20 0xFFFFFFFFFFFFFFFFFFFFFFFFFFFFFFFFFFFFFFFF AND PUSH4 0xA9059CBB CALLER DUP5 PUSH1 0x40 MLOAD DUP4 PUSH4 0xFFFFFFFF AND PUSH1 0xE0 SHL DUP2 MSTORE PUSH1 0x4 ADD PUSH2 0x9FE SWAP3 SWAP2 SWAP1 PUSH2 0x10B7 JUMP JUMPDEST PUSH1 0x20 PUSH1 0x40 MLOAD DUP1 DUP4 SUB DUP2 PUSH0 DUP8 GAS CALL ISZERO DUP1 ISZERO PUSH2 0xA1A JUMPI RETURNDATASIZE PUSH0 DUP1 RETURNDATACOPY RETURNDATASIZE PUSH0 REVERT JUMPDEST POP POP POP POP PUSH1 0x40 MLOAD RETURNDATASIZE PUSH1 0x1F NOT PUSH1 0x1F DUP3 ADD AND DUP3 ADD DUP1 PUSH1 0x40 MSTORE POP DUP2 ADD SWAP1 PUSH2 0xA3E SWAP2 SWAP1 PUSH2 0x1113 JUMP JUMPDEST POP DUP2 PUSH1 0x6 PUSH0 DUP3 DUP3 SLOAD PUSH2 0xA50 SWAP2 SWAP1 PUSH2 0x1341 JUMP JUMPDEST SWAP3 POP POP DUP2 SWAP1 SSTORE POP PUSH0 DUP1 SLOAD SWAP1 PUSH2 0x100 EXP SWAP1 DIV PUSH20 0xFFFFFFFFFFFFFFFFFFFFFFFFFFFFFFFFFFFFFFFF AND PUSH20 0xFFFFFFFFFFFFFFFFFFFFFFFFFFFFFFFFFFFFFFFF AND PUSH4 0x70A08231 CALLER PUSH1 0x40 MLOAD DUP3 PUSH4 0xFFFFFFFF AND PUSH1 0xE0 SHL DUP2 MSTORE PUSH1 0x4 ADD PUSH2 0xAAF SWAP2 SWAP1 PUSH2 0xF0B JUMP JUMPDEST PUSH1 0x20 PUSH1 0x40 MLOAD DUP1 DUP4 SUB DUP2 DUP7 GAS STATICCALL ISZERO DUP1 ISZERO PUSH2 0xACA JUMPI RETURNDATASIZE PUSH0 DUP1 RETURNDATACOPY RETURNDATASIZE PUSH0 REVERT JUMPDEST POP POP POP POP PUSH1 0x40 MLOAD RETURNDATASIZE PUSH1 0x1F NOT PUSH1 0x1F DUP3 ADD AND DUP3 ADD DUP1 PUSH1 0x40 MSTORE POP DUP2 ADD SWAP1 PUSH2 0xAEE SWAP2 SWAP1 PUSH2 0x1024 JUMP JUMPDEST PUSH1 0x7 DUP2 SWAP1 SSTORE POP POP POP JUMP JUMPDEST PUSH0 DUP1 PUSH1 0x2 SLOAD PUSH8 0xDE0B6B3A7640000 PUSH1 0x1 SLOAD PUSH2 0xB13 SWAP2 SWAP1 PUSH2 0x11D3 JUMP JUMPDEST PUSH2 0xB1D SWAP2 SWAP1 PUSH2 0x1241 JUMP JUMPDEST SWAP1 POP DUP1 SWAP2 POP POP SWAP1 JUMP JUMPDEST PUSH1 0x6 SLOAD DUP2 JUMP JUMPDEST PUSH1 0x1 SLOAD DUP2 JUMP JUMPDEST PUSH0 PUSH1 0x7 SLOAD SWAP1 POP SWAP1 JUMP JUMPDEST CALLER PUSH20 0xFFFFFFFFFFFFFFFFFFFFFFFFFFFFFFFFFFFFFFFF AND PUSH1 0x3 PUSH0 SWAP1 SLOAD SWAP1 PUSH2 0x100 EXP SWAP1 DIV PUSH20 0xFFFFFFFFFFFFFFFFFFFFFFFFFFFFFFFFFFFFFFFF AND PUSH20 0xFFFFFFFFFFFFFFFFFFFFFFFFFFFFFFFFFFFFFFFF AND EQ PUSH2 0xBCA JUMPI PUSH1 0x40 MLOAD PUSH32 0x8C379A000000000000000000000000000000000000000000000000000000000 DUP2 MSTORE PUSH1 0x4 ADD PUSH2 0xBC1 SWAP1 PUSH2 0xFF2 JUMP JUMPDEST PUSH1 0x40 MLOAD DUP1 SWAP2 SUB SWAP1 REVERT JUMPDEST DUP2 PUSH1 0x4 DUP2 SWAP1 SSTORE POP DUP1 PUSH1 0x5 DUP2 SWAP1 SSTORE POP POP POP JUMP JUMPDEST PUSH1 0x3 PUSH0 SWAP1 SLOAD SWAP1 PUSH2 0x100 EXP SWAP1 DIV PUSH20 0xFFFFFFFFFFFFFFFFFFFFFFFFFFFFFFFFFFFFFFFF AND DUP2 JUMP JUMPDEST PUSH0 PUSH1 0x6 SLOAD SWAP1 POP SWAP1 JUMP JUMPDEST PUSH1 0x7 SLOAD DUP2 JUMP JUMPDEST PUSH1 0x4 SLOAD DUP2 JUMP JUMPDEST PUSH1 0x5 SLOAD DUP2 JUMP JUMPDEST PUSH1 0x2 SLOAD DUP2 JUMP JUMPDEST CALLER PUSH20 0xFFFFFFFFFFFFFFFFFFFFFFFFFFFFFFFFFFFFFFFF AND PUSH1 0x3 PUSH0 SWAP1 SLOAD SWAP1 PUSH2 0x100 EXP SWAP1 DIV PUSH20 0xFFFFFFFFFFFFFFFFFFFFFFFFFFFFFFFFFFFFFFFF AND PUSH20 0xFFFFFFFFFFFFFFFFFFFFFFFFFFFFFFFFFFFFFFFF AND EQ PUSH2 0xCB1 JUMPI PUSH1 0x40 MLOAD PUSH32 0x8C379A000000000000000000000000000000000000000000000000000000000 DUP2 MSTORE PUSH1 0x4 ADD PUSH2 0xCA8 SWAP1 PUSH2 0xFF2 JUMP JUMPDEST PUSH1 0x40 MLOAD DUP1 SWAP2 SUB SWAP1 REVERT JUMPDEST DUP2 PUSH1 0x1 DUP2 SWAP1 SSTORE POP DUP1 PUSH1 0x2 DUP2 SWAP1 SSTORE POP POP POP JUMP JUMPDEST PUSH0 DUP1 SLOAD SWAP1 PUSH2 0x100 EXP SWAP1 DIV PUSH20 0xFFFFFFFFFFFFFFFFFFFFFFFFFFFFFFFFFFFFFFFF AND DUP2 JUMP JUMPDEST PUSH0 DUP1 REVERT JUMPDEST PUSH0 PUSH20 0xFFFFFFFFFFFFFFFFFFFFFFFFFFFFFFFFFFFFFFFF DUP3 AND SWAP1 POP SWAP2 SWAP1 POP JUMP JUMPDEST PUSH0 PUSH2 0xD13 DUP3 PUSH2 0xCEA JUMP JUMPDEST SWAP1 POP SWAP2 SWAP1 POP JUMP JUMPDEST PUSH0 PUSH2 0xD24 DUP3 PUSH2 0xD09 JUMP JUMPDEST SWAP1 POP SWAP2 SWAP1 POP JUMP JUMPDEST PUSH2 0xD34 DUP2 PUSH2 0xD1A JUMP JUMPDEST DUP2 EQ PUSH2 0xD3E JUMPI PUSH0 DUP1 REVERT JUMPDEST POP JUMP JUMPDEST PUSH0 DUP2 CALLDATALOAD SWAP1 POP PUSH2 0xD4F DUP2 PUSH2 0xD2B JUMP JUMPDEST SWAP3 SWAP2 POP POP JUMP JUMPDEST PUSH2 0xD5E DUP2 PUSH2 0xD09 JUMP JUMPDEST DUP2 EQ PUSH2 0xD68 JUMPI PUSH0 DUP1 REVERT JUMPDEST POP JUMP JUMPDEST PUSH0 DUP2 CALLDATALOAD SWAP1 POP PUSH2 0xD79 DUP2 PUSH2 0xD55 JUMP JUMPDEST SWAP3 SWAP2 POP POP JUMP JUMPDEST PUSH0 DUP2 SWAP1 POP SWAP2 SWAP1 POP JUMP JUMPDEST PUSH2 0xD91 DUP2 PUSH2 0xD7F JUMP JUMPDEST DUP2 EQ PUSH2 0xD9B JUMPI PUSH0 DUP1 REVERT JUMPDEST POP JUMP JUMPDEST PUSH0 DUP2 CALLDATALOAD SWAP1 POP PUSH2 0xDAC DUP2 PUSH2 0xD88 JUMP JUMPDEST SWAP3 SWAP2 POP POP JUMP JUMPDEST PUSH0 DUP1 PUSH0 PUSH1 0x60 DUP5 DUP7 SUB SLT ISZERO PUSH2 0xDC9 JUMPI PUSH2 0xDC8 PUSH2 0xCE6 JUMP JUMPDEST JUMPDEST PUSH0 PUSH2 0xDD6 DUP7 DUP3 DUP8 ADD PUSH2 0xD41 JUMP JUMPDEST SWAP4 POP POP PUSH1 0x20 PUSH2 0xDE7 DUP7 DUP3 DUP8 ADD PUSH2 0xD6B JUMP JUMPDEST SWAP3 POP POP PUSH1 0x40 PUSH2 0xDF8 DUP7 DUP3 DUP8 ADD PUSH2 0xD9E JUMP JUMPDEST SWAP2 POP POP SWAP3 POP SWAP3 POP SWAP3 JUMP JUMPDEST PUSH0 PUSH1 0x20 DUP3 DUP5 SUB SLT ISZERO PUSH2 0xE17 JUMPI PUSH2 0xE16 PUSH2 0xCE6 JUMP JUMPDEST JUMPDEST PUSH0 PUSH2 0xE24 DUP5 DUP3 DUP6 ADD PUSH2 0xD6B JUMP JUMPDEST SWAP2 POP POP SWAP3 SWAP2 POP POP JUMP JUMPDEST PUSH0 DUP1 PUSH1 0x40 DUP4 DUP6 SUB SLT ISZERO PUSH2 0xE43 JUMPI PUSH2 0xE42 PUSH2 0xCE6 JUMP JUMPDEST JUMPDEST PUSH0 PUSH2 0xE50 DUP6 DUP3 DUP7 ADD PUSH2 0xD6B JUMP JUMPDEST SWAP3 POP POP PUSH1 0x20 PUSH2 0xE61 DUP6 DUP3 DUP7 ADD PUSH2 0xD9E JUMP JUMPDEST SWAP2 POP POP SWAP3 POP SWAP3 SWAP1 POP JUMP JUMPDEST PUSH0 PUSH1 0x20 DUP3 DUP5 SUB SLT ISZERO PUSH2 0xE80 JUMPI PUSH2 0xE7F PUSH2 0xCE6 JUMP JUMPDEST JUMPDEST PUSH0 PUSH2 0xE8D DUP5 DUP3 DUP6 ADD PUSH2 0xD9E JUMP JUMPDEST SWAP2 POP POP SWAP3 SWAP2 POP POP JUMP JUMPDEST PUSH2 0xE9F DUP2 PUSH2 0xD7F JUMP JUMPDEST DUP3 MSTORE POP POP JUMP JUMPDEST PUSH0 PUSH1 0x20 DUP3 ADD SWAP1 POP PUSH2 0xEB8 PUSH0 DUP4 ADD DUP5 PUSH2 0xE96 JUMP JUMPDEST SWAP3 SWAP2 POP POP JUMP JUMPDEST PUSH0 DUP1 PUSH1 0x40 DUP4 DUP6 SUB SLT ISZERO PUSH2 0xED4 JUMPI PUSH2 0xED3 PUSH2 0xCE6 JUMP JUMPDEST JUMPDEST PUSH0 PUSH2 0xEE1 DUP6 DUP3 DUP7 ADD PUSH2 0xD9E JUMP JUMPDEST SWAP3 POP POP PUSH1 0x20 PUSH2 0xEF2 DUP6 DUP3 DUP7 ADD PUSH2 0xD9E JUMP JUMPDEST SWAP2 POP POP SWAP3 POP SWAP3 SWAP1 POP JUMP JUMPDEST PUSH2 0xF05 DUP2 PUSH2 0xD09 JUMP JUMPDEST DUP3 MSTORE POP POP JUMP JUMPDEST PUSH0 PUSH1 0x20 DUP3 ADD SWAP1 POP PUSH2 0xF1E PUSH0 DUP4 ADD DUP5 PUSH2 0xEFC JUMP JUMPDEST SWAP3 SWAP2 POP POP JUMP JUMPDEST PUSH0 DUP2 SWAP1 POP SWAP2 SWAP1 POP JUMP JUMPDEST PUSH0 PUSH2 0xF47 PUSH2 0xF42 PUSH2 0xF3D DUP5 PUSH2 0xCEA JUMP JUMPDEST PUSH2 0xF24 JUMP JUMPDEST PUSH2 0xCEA JUMP JUMPDEST SWAP1 POP SWAP2 SWAP1 POP JUMP JUMPDEST PUSH0 PUSH2 0xF58 DUP3 PUSH2 0xF2D JUMP JUMPDEST SWAP1 POP SWAP2 SWAP1 POP JUMP JUMPDEST PUSH0 PUSH2 0xF69 DUP3 PUSH2 0xF4E JUMP JUMPDEST SWAP1 POP SWAP2 SWAP1 POP JUMP JUMPDEST PUSH2 0xF79 DUP2 PUSH2 0xF5F JUMP JUMPDEST DUP3 MSTORE POP POP JUMP JUMPDEST PUSH0 PUSH1 0x20 DUP3 ADD SWAP1 POP PUSH2 0xF92 PUSH0 DUP4 ADD DUP5 PUSH2 0xF70 JUMP JUMPDEST SWAP3 SWAP2 POP POP JUMP JUMPDEST PUSH0 DUP3 DUP3 MSTORE PUSH1 0x20 DUP3 ADD SWAP1 POP SWAP3 SWAP2 POP POP JUMP JUMPDEST PUSH32 0x4E6F74206F776E65720000000000000000000000000000000000000000000000 PUSH0 DUP3 ADD MSTORE POP JUMP JUMPDEST PUSH0 PUSH2 0xFDC PUSH1 0x9 DUP4 PUSH2 0xF98 JUMP JUMPDEST SWAP2 POP PUSH2 0xFE7 DUP3 PUSH2 0xFA8 JUMP JUMPDEST PUSH1 0x20 DUP3 ADD SWAP1 POP SWAP2 SWAP1 POP JUMP JUMPDEST PUSH0 PUSH1 0x20 DUP3 ADD SWAP1 POP DUP2 DUP2 SUB PUSH0 DUP4 ADD MSTORE PUSH2 0x1009 DUP2 PUSH2 0xFD0 JUMP JUMPDEST SWAP1 POP SWAP2 SWAP1 POP JUMP JUMPDEST PUSH0 DUP2 MLOAD SWAP1 POP PUSH2 0x101E DUP2 PUSH2 0xD88 JUMP JUMPDEST SWAP3 SWAP2 POP POP JUMP JUMPDEST PUSH0 PUSH1 0x20 DUP3 DUP5 SUB SLT ISZERO PUSH2 0x1039 JUMPI PUSH2 0x1038 PUSH2 0xCE6 JUMP JUMPDEST JUMPDEST PUSH0 PUSH2 0x1046 DUP5 DUP3 DUP6 ADD PUSH2 0x1010 JUMP JUMPDEST SWAP2 POP POP SWAP3 SWAP2 POP POP JUMP JUMPDEST PUSH32 0x496E73756666696369656E742066756E64000000000000000000000000000000 PUSH0 DUP3 ADD MSTORE POP JUMP JUMPDEST PUSH0 PUSH2 0x1083 PUSH1 0x11 DUP4 PUSH2 0xF98 JUMP JUMPDEST SWAP2 POP PUSH2 0x108E DUP3 PUSH2 0x104F JUMP JUMPDEST PUSH1 0x20 DUP3 ADD SWAP1 POP SWAP2 SWAP1 POP JUMP JUMPDEST PUSH0 PUSH1 0x20 DUP3 ADD SWAP1 POP DUP2 DUP2 SUB PUSH0 DUP4 ADD MSTORE PUSH2 0x10B0 DUP2 PUSH2 0x1077 JUMP JUMPDEST SWAP1 POP SWAP2 SWAP1 POP JUMP JUMPDEST PUSH0 PUSH1 0x40 DUP3 ADD SWAP1 POP PUSH2 0x10CA PUSH0 DUP4 ADD DUP6 PUSH2 0xEFC JUMP JUMPDEST PUSH2 0x10D7 PUSH1 0x20 DUP4 ADD DUP5 PUSH2 0xE96 JUMP JUMPDEST SWAP4 SWAP3 POP POP POP JUMP JUMPDEST PUSH0 DUP2 ISZERO ISZERO SWAP1 POP SWAP2 SWAP1 POP JUMP JUMPDEST PUSH2 0x10F2 DUP2 PUSH2 0x10DE JUMP JUMPDEST DUP2 EQ PUSH2 0x10FC JUMPI PUSH0 DUP1 REVERT JUMPDEST POP JUMP JUMPDEST PUSH0 DUP2 MLOAD SWAP1 POP PUSH2 0x110D DUP2 PUSH2 0x10E9 JUMP JUMPDEST SWAP3 SWAP2 POP POP JUMP JUMPDEST PUSH0 PUSH1 0x20 DUP3 DUP5 SUB SLT ISZERO PUSH2 0x1128 JUMPI PUSH2 0x1127 PUSH2 0xCE6 JUMP JUMPDEST JUMPDEST PUSH0 PUSH2 0x1135 DUP5 DUP3 DUP6 ADD PUSH2 0x10FF JUMP JUMPDEST SWAP2 POP POP SWAP3 SWAP2 POP POP JUMP JUMPDEST PUSH32 0x4174206C65617374203120746F6B656E00000000000000000000000000000000 PUSH0 DUP3 ADD MSTORE POP JUMP JUMPDEST PUSH0 PUSH2 0x1172 PUSH1 0x10 DUP4 PUSH2 0xF98 JUMP JUMPDEST SWAP2 POP PUSH2 0x117D DUP3 PUSH2 0x113E JUMP JUMPDEST PUSH1 0x20 DUP3 ADD SWAP1 POP SWAP2 SWAP1 POP JUMP JUMPDEST PUSH0 PUSH1 0x20 DUP3 ADD SWAP1 POP DUP2 DUP2 SUB PUSH0 DUP4 ADD MSTORE PUSH2 0x119F DUP2 PUSH2 0x1166 JUMP JUMPDEST SWAP1 POP SWAP2 SWAP1 POP JUMP JUMPDEST PUSH32 0x4E487B7100000000000000000000000000000000000000000000000000000000 PUSH0 MSTORE PUSH1 0x11 PUSH1 0x4 MSTORE PUSH1 0x24 PUSH0 REVERT JUMPDEST PUSH0 PUSH2 0x11DD DUP3 PUSH2 0xD7F JUMP JUMPDEST SWAP2 POP PUSH2 0x11E8 DUP4 PUSH2 0xD7F JUMP JUMPDEST SWAP3 POP DUP3 DUP3 MUL PUSH2 0x11F6 DUP2 PUSH2 0xD7F JUMP JUMPDEST SWAP2 POP DUP3 DUP3 DIV DUP5 EQ DUP4 ISZERO OR PUSH2 0x120D JUMPI PUSH2 0x120C PUSH2 0x11A6 JUMP JUMPDEST JUMPDEST POP SWAP3 SWAP2 POP POP JUMP JUMPDEST PUSH32 0x4E487B7100000000000000000000000000000000000000000000000000000000 PUSH0 MSTORE PUSH1 0x12 PUSH1 0x4 MSTORE PUSH1 0x24 PUSH0 REVERT JUMPDEST PUSH0 PUSH2 0x124B DUP3 PUSH2 0xD7F JUMP JUMPDEST SWAP2 POP PUSH2 0x1256 DUP4 PUSH2 0xD7F JUMP JUMPDEST SWAP3 POP DUP3 PUSH2 0x1266 JUMPI PUSH2 0x1265 PUSH2 0x1214 JUMP JUMPDEST JUMPDEST DUP3 DUP3 DIV SWAP1 POP SWAP3 SWAP2 POP POP JUMP JUMPDEST PUSH32 0x53616C65206E6F74207374617274656400000000000000000000000000000000 PUSH0 DUP3 ADD MSTORE POP JUMP JUMPDEST PUSH0 PUSH2 0x12A5 PUSH1 0x10 DUP4 PUSH2 0xF98 JUMP JUMPDEST SWAP2 POP PUSH2 0x12B0 DUP3 PUSH2 0x1271 JUMP JUMPDEST PUSH1 0x20 DUP3 ADD SWAP1 POP SWAP2 SWAP1 POP JUMP JUMPDEST PUSH0 PUSH1 0x20 DUP3 ADD SWAP1 POP DUP2 DUP2 SUB PUSH0 DUP4 ADD MSTORE PUSH2 0x12D2 DUP2 PUSH2 0x1299 JUMP JUMPDEST SWAP1 POP SWAP2 SWAP1 POP JUMP JUMPDEST PUSH32 0x53616C6520686173206265656E20656E64656400000000000000000000000000 PUSH0 DUP3 ADD MSTORE POP JUMP JUMPDEST PUSH0 PUSH2 0x130D PUSH1 0x13 DUP4 PUSH2 0xF98 JUMP JUMPDEST SWAP2 POP PUSH2 0x1318 DUP3 PUSH2 0x12D9 JUMP JUMPDEST PUSH1 0x20 DUP3 ADD SWAP1 POP SWAP2 SWAP1 POP JUMP JUMPDEST PUSH0 PUSH1 0x20 DUP3 ADD SWAP1 POP DUP2 DUP2 SUB PUSH0 DUP4 ADD MSTORE PUSH2 0x133A DUP2 PUSH2 0x1301 JUMP JUMPDEST SWAP1 POP SWAP2 SWAP1 POP JUMP JUMPDEST PUSH0 PUSH2 0x134B DUP3 PUSH2 0xD7F JUMP JUMPDEST SWAP2 POP PUSH2 0x1356 DUP4 PUSH2 0xD7F JUMP JUMPDEST SWAP3 POP DUP3 DUP3 ADD SWAP1 POP DUP1 DUP3 GT ISZERO PUSH2 0x136E JUMPI PUSH2 0x136D PUSH2 0x11A6 JUMP JUMPDEST JUMPDEST SWAP3 SWAP2 POP POP JUMP INVALID LOG2 PUSH5 0x6970667358 0x22 SLT KECCAK256 0xEC SWAP9 KECCAK256 0xAD SSTORE DUP11 0xD8 0xA6 PUSH29 0x9CB8627F4ABA52A49D15646FA8F39EA8062444B334500E64736F6C6343 STOP ADDMOD BYTE STOP CALLER "
				},
				"gasEstimates": {
					"creation": {
						"codeDepositCost": "1006800",
						"executionCost": "infinite",
						"totalCost": "infinite"
					},
					"external": {
						"buyToken(uint256)": "infinite",
						"endSaleDate()": "2469",
						"getTokenBalance()": "2543",
						"getTokenPrice()": "infinite",
						"getTokenSold()": "2499",
						"owner()": "2553",
						"price_denom()": "2491",
						"price_num()": "2514",
						"setOwner(address)": "26930",
						"setPrice(uint256,uint256)": "infinite",
						"setSaleDate(uint256,uint256)": "infinite",
						"setToken(address)": "26952",
						"startSaleDate()": "2447",
						"token()": "infinite",
						"tokenBalance()": "2514",
						"tokensSold()": "2492",
						"withdrawEth(address,uint256)": "infinite",
						"withdrawToken(address,address,uint256)": "infinite"
					}
				},
				"methodIdentifiers": {
					"buyToken(uint256)": "2d296bf1",
					"endSaleDate()": "d7d88043",
					"getTokenBalance()": "82b2e257",
					"getTokenPrice()": "4b94f50e",
					"getTokenSold()": "94d77363",
					"owner()": "8da5cb5b",
					"price_denom()": "de74aee6",
					"price_num()": "6469fa4e",
					"setOwner(address)": "13af4035",
					"setPrice(uint256,uint256)": "f7d97577",
					"setSaleDate(uint256,uint256)": "846bd39a",
					"setToken(address)": "144fa6d7",
					"startSaleDate()": "bcf387cd",
					"token()": "fc0c546a",
					"tokenBalance()": "9e1a4d19",
					"tokensSold()": "518ab2a8",
					"withdrawEth(address,uint256)": "1b9a91a4",
					"withdrawToken(address,address,uint256)": "01e33667"
				}
			},
			"storageLayout": {
				"storage": [
					{
						"astId": 79,
						"contract": "contracts/Presale.sol:PresaleComplete",
						"label": "token",
						"offset": 0,
						"slot": "0",
						"type": "t_contract(IERC20)76"
					},
					{
						"astId": 81,
						"contract": "contracts/Presale.sol:PresaleComplete",
						"label": "price_num",
						"offset": 0,
						"slot": "1",
						"type": "t_uint256"
					},
					{
						"astId": 83,
						"contract": "contracts/Presale.sol:PresaleComplete",
						"label": "price_denom",
						"offset": 0,
						"slot": "2",
						"type": "t_uint256"
					},
					{
						"astId": 85,
						"contract": "contracts/Presale.sol:PresaleComplete",
						"label": "owner",
						"offset": 0,
						"slot": "3",
						"type": "t_address"
					},
					{
						"astId": 87,
						"contract": "contracts/Presale.sol:PresaleComplete",
						"label": "startSaleDate",
						"offset": 0,
						"slot": "4",
						"type": "t_uint256"
					},
					{
						"astId": 89,
						"contract": "contracts/Presale.sol:PresaleComplete",
						"label": "endSaleDate",
						"offset": 0,
						"slot": "5",
						"type": "t_uint256"
					},
					{
						"astId": 91,
						"contract": "contracts/Presale.sol:PresaleComplete",
						"label": "tokensSold",
						"offset": 0,
						"slot": "6",
						"type": "t_uint256"
					},
					{
						"astId": 93,
						"contract": "contracts/Presale.sol:PresaleComplete",
						"label": "tokenBalance",
						"offset": 0,
						"slot": "7",
						"type": "t_uint256"
					}
				],
				"types": {
					"t_address": {
						"encoding": "inplace",
						"label": "address",
						"numberOfBytes": "20"
					},
					"t_contract(IERC20)76": {
						"encoding": "inplace",
						"label": "contract IERC20",
						"numberOfBytes": "20"
					},
					"t_uint256": {
						"encoding": "inplace",
						"label": "uint256",
						"numberOfBytes": "32"
					}
				}
			},
			"userdoc": {
				"kind": "user",
				"methods": {},
				"version": 1
			}
		}
	}
}